A0000241062016000Ordinaria                00                                                                                                                                                                                                                                                                                                                                                                                                                                                                                                                                                                                                                                                            
E0080000010001120160000000000RITENUTE SU EMOLUMENTI MESE DI: GIUGNO 16                                                                                                                                                                                                                 0000000001410127000100002RITEN.CONTRIB.MESE: GIUGNO 16 A CARICO DEL PERSONALE DIPENDEN.                                                                                                                                                                                            06101                           0000000000000000000000008000000000000                                                         
E0080000010001120160000002016RITENUTE SU EMOLUMENTI MESE DI: GIUGNO 16                                                                                                                                                                                                                 0000000000010907000100002RITEN.CONTRIB.MESE: GIUGNO 16 A CARICO DEL PERSONALE DIPENDEN.                                                                                                                                                                                            06101                           0000000000000000000000008000000000000                                                         
E0081000110001720160000000000RITENUTE SU EMOLUMENTI MESE DI: GIUGNO 16                                                                                                                                                                                                                 0000000002184289000100002RIT.ACC.IRPEF MESE: GIUGNO 16                                                                                                                                                                                                                             06201                           0000000000000000000000008100000010000                                                         
E0081000110001720160000002016RITENUTE SU EMOLUMENTI MESE DI: GIUGNO 16                                                                                                                                                                                                                 0000000000257085000100002RITENUTE DEL MESE: GIUGNO 16 PER ADDIZIONALE REGIONALE                                                                                                                                                                                                    06201                           0000000000000000000000008100000010000                                                         
E0083000910001820160000102016RITENUTE SU EMOLUMENTI MESE DI: GIUGNO 16                                                                                                                                                                                                                 0000000000096141000100002RITENUTE QUOTE MESE GIUGNO 16 PER CONTO TERZI.                                                                                                                                                                                                            06301                           0000000000000000000000008300000090000                                                         
E0083000910001820160000102016RITENUTE SU EMOLUMENTI MESE DI: GIUGNO 16                                                                                                                                                                                                                 0000000000048893000100002RITENUTE QUOTE MESE GIUGNO 16 PER CONTO TERZI.                                                                                                                                                                                                            06301                           0000000000000000000000008300000090000                                                         
E0083000910001820160000102016RITENUTE SU EMOLUMENTI MESE DI: GIUGNO 16                                                                                                                                                                                                                 0000000000033430000100002RITENUTE QUOTE MESE GIUGNO 16 PER CONTO TERZI.                                                                                                                                                                                                            06501                           0000000000000000000000008300000090000                                                         
E0083001010511120160000100000RITENUTE SU EMOLUMENTI MESE DI: GIUGNO 16                                                                                                                                                                                                                 0000000000042621000100002RITENUTE QUOTE MESE GIUGNO 16 PER CONTO TERZI.                                                                                                                                                                                                            06301                           0000000000000000000000008300000100000                                                         
U0001000110511120160000000000STIPENDI RELATIVI AL MESE DI: GIUGNO 16                                                                                                                                                                                                                   0000000000833037000001112STIPENDI MESE DI: GIUGNO 16                                                                                                                                                                                                                               01325                           0000000002739260000000000100000010000                                                         
U0002610010521520160000002016VERSAMENTO IMPOSTE PER I.R.A.P.  MESE DI: GIUGNO 16                                                                                                                                                                                                       0000000000070810000001326VERS. IMPOSTE MESE: GIUGNO 16 PER I.R.A.P.                                                                                                                                                                                                                01701                           0000000000000000000000000261000000000                                                         
U0003000110500820160000000000STIPENDI RELATIVI AL MESE DI: GIUGNO 16                                                                                                                                                                                                                   0000000001635282000001069STIPENDI MESE DI: GIUGNO 16                                                                                                                                                                                                                               01101                           0000000004937000000000000300000010000                                                         
U0003000110500820160000000000STIPENDI RELATIVI AL MESE DI: GIUGNO 16                                                                                                                                                                                                                   0000000000050670000001069STIPENDI MESE DI: GIUGNO 16                                                                                                                                                                                                                               01101                           0000000000144550000000000300000010000                                                         
U0003000110500820160000000000STIPENDI RELATIVI AL MESE DI: GIUGNO 16                                                                                                                                                                                                                   0000000000029157000001069STIPENDI MESE DI: GIUGNO 16                                                                                                                                                                                                                               01101                           0000000000075590000000000300000010000                                                         
U0003002010512220160000000000VERSAMENTO CONTRIBUTI O RITENUTE  MESE DI: GIUGNO 16                                                                                                                                                                                                      0000000000410159000000399VERS.CONTRIB. MESE: GIUGNO 16 A CARICO DELL`ENTE                                                                                                                                                                                                          01111         P201160606        0000000000000000000000000300000200000                                                         
U0003002010512220160000000000VERSAMENTO CONTRIBUTI O RITENUTE  MESE DI: GIUGNO 16                                                                                                                                                                                                      0000000000034207000000107VERS.CONTRIB. MESE: GIUGNO 16 A CARICO DELL`ENTE                                                                                                                                                                                                          01113         P607160606        0000000000000000000000000300000200000                                                         
U0003002010512220160000000000VERSAMENTO CONTRIBUTI O RITENUTE  MESE DI: GIUGNO 16                                                                                                                                                                                                      0000000000020107000000107VERS.CONTRIB. MESE: GIUGNO 16 A CARICO DELL`ENTE                                                                                                                                                                                                          01113         P608160606        0000000000000000000000000300000200000                                                         
U0003002510540020160000000000STIPENDI RELATIVI AL MESE DI: GIUGNO 16                                                                                                                                                                                                                   0000000000016833000001069STIPENDI MESE DI: GIUGNO 16                                                                                                                                                                                                                               01101                           0000000000000000000000000300000250000                                                         
U0003500010580120160000002016STIPENDI RELATIVI AL MESE DI: GIUGNO 16                                                                                                                                                                                                                   0000000000139524000000001STIPENDI MESE DI: GIUGNO 16                                                                                                                                                                                                                               01102                           0000000000412940000000000350000000000                                                         
U0003500010580620160000002016STIPENDI RELATIVI AL MESE DI: GIUGNO 16                                                                                                                                                                                                                   0000000000074584000000001STIPENDI MESE DI: GIUGNO 16                                                                                                                                                                                                                               01102                           0000000000239110000000000350000000000                                                         
U0003502010580720160000002016VERSAMENTO CONTRIBUTI O RITENUTE  MESE DI: GIUGNO 16                                                                                                                                                                                                      0000000000033207000000399VERS.CONTRIB. MESE: GIUGNO 16 A CARICO DELL`ENTE                                                                                                                                                                                                          01111         P201160606        0000000000000000000000000350000200000                                                         
U0003502010580720160000002016VERSAMENTO CONTRIBUTI O RITENUTE  MESE DI: GIUGNO 16                                                                                                                                                                                                      0000000000017750000000399VERS.CONTRIB. MESE: GIUGNO 16 A CARICO DELL`ENTE                                                                                                                                                                                                          01111         P201160606        0000000000000000000000000350000200000                                                         
U0003503010580820160000002016VERSAMENTO IMPOSTE PER I.R.A.P.  MESE DI: GIUGNO 16                                                                                                                                                                                                       0000000000011859000001326VERS. IMPOSTE MESE: GIUGNO 16 PER I.R.A.P.                                                                                                                                                                                                                01701                           0000000000000000000000000350000300000                                                         
U0003503010580820160000002016VERSAMENTO IMPOSTE PER I.R.A.P.  MESE DI: GIUGNO 16                                                                                                                                                                                                       0000000000006180000001326VERS. IMPOSTE MESE: GIUGNO 16 PER I.R.A.P.                                                                                                                                                                                                                01701                           0000000000000000000000000350000300000                                                         
U0003510010560020160000002016STIPENDI RELATIVI AL MESE DI: GIUGNO 16                                                                                                                                                                                                                   0000000000015000000001069STIPENDI MESE DI: GIUGNO 16                                                                                                                                                                                                                               01103                           0000000000031970000000000351000000000                                                         
U0003510010581120160000002016STIPENDI RELATIVI AL MESE DI: GIUGNO 16                                                                                                                                                                                                                   0000000000196803000001069STIPENDI MESE DI: GIUGNO 16                                                                                                                                                                                                                               01101                           0000000000742130000000000351000000000                                                         
U0003510010581320160000002016STIPENDI RELATIVI AL MESE DI: GIUGNO 16                                                                                                                                                                                                                   0000000000076645000001069STIPENDI MESE DI: GIUGNO 16                                                                                                                                                                                                                               01103                           0000000000211490000000000351000000000                                                         
U0003510010581320160000002016STIPENDI RELATIVI AL MESE DI: GIUGNO 16                                                                                                                                                                                                                   0000000000021901000001069STIPENDI MESE DI: GIUGNO 16                                                                                                                                                                                                                               01103                           0000000000062030000000000351000000000                                                         
U0003510010581420160000002016STIPENDI RELATIVI AL MESE DI: GIUGNO 16                                                                                                                                                                                                                   0000000000076923000001069STIPENDI MESE DI: GIUGNO 16                                                                                                                                                                                                                               01101                           0000000000284520000000000351000000000                                                         
U0003512010565020160000000000VERSAMENTO CONTRIBUTI O RITENUTE  MESE DI: GIUGNO 16                                                                                                                                                                                                      0000000000003570000000399VERS.CONTRIB. MESE: GIUGNO 16 A CARICO DELL`ENTE                                                                                                                                                                                                          01111         P201160606        0000000000000000000000000351000200000                                                         
U0003512010565020160000002016VERSAMENTO CONTRIBUTI O RITENUTE  MESE DI: GIUGNO 16                                                                                                                                                                                                      0000000000046840000000399VERS.CONTRIB. MESE: GIUGNO 16 A CARICO DELL`ENTE                                                                                                                                                                                                          01111         P201160606        0000000000000000000000000351000200000                                                         
U0003512010565020160000002016VERSAMENTO CONTRIBUTI O RITENUTE  MESE DI: GIUGNO 16                                                                                                                                                                                                      0000000000041763000000399VERS.CONTRIB. MESE: GIUGNO 16 A CARICO DELL`ENTE                                                                                                                                                                                                          01111         P201160606        0000000000000000000000000351000200000                                                         
U0003512010565020160000002016VERSAMENTO CONTRIBUTI O RITENUTE  MESE DI: GIUGNO 16                                                                                                                                                                                                      0000000000003453000000107VERS.CONTRIB. MESE: GIUGNO 16 A CARICO DELL`ENTE                                                                                                                                                                                                          01113         P607160606        0000000000000000000000000351000200000                                                         
U0003512010565020160000002016VERSAMENTO CONTRIBUTI O RITENUTE  MESE DI: GIUGNO 16                                                                                                                                                                                                      0000000000000172000000107VERS.CONTRIB. MESE: GIUGNO 16 A CARICO DELL`ENTE                                                                                                                                                                                                          01113         P607160606        0000000000000000000000000351000200000                                                         
U0003513010566020160000000000VERSAMENTO IMPOSTE PER I.R.A.P.  MESE DI: GIUGNO 16                                                                                                                                                                                                       0000000000001274000001326VERS. IMPOSTE MESE: GIUGNO 16 PER I.R.A.P.                                                                                                                                                                                                                01701                           0000000000000000000000000351000300000                                                         
U0003513010566020160000002016VERSAMENTO IMPOSTE PER I.R.A.P.  MESE DI: GIUGNO 16                                                                                                                                                                                                       0000000000016728000001326VERS. IMPOSTE MESE: GIUGNO 16 PER I.R.A.P.                                                                                                                                                                                                                01701                           0000000000000000000000000351000300000                                                         
U0003513010566020160000002016VERSAMENTO IMPOSTE PER I.R.A.P.  MESE DI: GIUGNO 16                                                                                                                                                                                                       0000000000013628000001326VERS. IMPOSTE MESE: GIUGNO 16 PER I.R.A.P.                                                                                                                                                                                                                01701                           0000000000000000000000000351000300000                                                         
U0007130110578020160000002016STIPENDI RELATIVI AL MESE DI: GIUGNO 16                                                                                                                                                                                                                   0000000000016334000001069STIPENDI MESE DI: GIUGNO 16                                                                                                                                                                                                                               01330                           0000000000000000000000000713000010000                                                         
U0008510010504120160000000000VERSAMENTO IMPOSTE PER I.R.A.P.  MESE DI: GIUGNO 16                                                                                                                                                                                                       0000000000139437000001326VERS. IMPOSTE MESE: GIUGNO 16 PER I.R.A.P.                                                                                                                                                                                                                01701                           0000000000000000000000000851000000000                                                         
U0009000110500920160000000000STIPENDI RELATIVI AL MESE DI: GIUGNO 16                                                                                                                                                                                                                   0000000000959873000001069STIPENDI MESE DI: GIUGNO 16                                                                                                                                                                                                                               01101                           0000000002314390000000000900000010000                                                         
U0009000110500920160000000000STIPENDI RELATIVI AL MESE DI: GIUGNO 16                                                                                                                                                                                                                   0000000000024249000001069STIPENDI MESE DI: GIUGNO 16                                                                                                                                                                                                                               01101                           0000000000058630000000000900000010000                                                         
U0009000110500920160000000000STIPENDI RELATIVI AL MESE DI: GIUGNO 16                                                                                                                                                                                                                   0000000000016795000001069STIPENDI MESE DI: GIUGNO 16                                                                                                                                                                                                                               01101                           0000000000044910000000000900000010000                                                         
U0009002010512320160000000000VERSAMENTO CONTRIBUTI O RITENUTE  MESE DI: GIUGNO 16                                                                                                                                                                                                      0000000000241233000000399VERS.CONTRIB. MESE: GIUGNO 16 A CARICO DELL`ENTE                                                                                                                                                                                                          01111         P201160606        0000000000000000000000000900000200000                                                         
U0009002010512320160000000000VERSAMENTO CONTRIBUTI O RITENUTE  MESE DI: GIUGNO 16                                                                                                                                                                                                      0000000000030917000000107VERS.CONTRIB. MESE: GIUGNO 16 A CARICO DELL`ENTE                                                                                                                                                                                                          01113         P608160606        0000000000000000000000000900000200000                                                         
U0009002010512320160000000000VERSAMENTO CONTRIBUTI O RITENUTE  MESE DI: GIUGNO 16                                                                                                                                                                                                      0000000000010173000000107VERS.CONTRIB. MESE: GIUGNO 16 A CARICO DELL`ENTE                                                                                                                                                                                                          01113         P607160606        0000000000000000000000000900000200000                                                         
U0009002510540120160000000000STIPENDI RELATIVI AL MESE DI: GIUGNO 16                                                                                                                                                                                                                   0000000000002733000001069STIPENDI MESE DI: GIUGNO 16                                                                                                                                                                                                                               01101                           0000000000000000000000000900000250000                                                         
U0009530010582120160000002016STIPENDI RELATIVI AL MESE DI: GIUGNO 16                                                                                                                                                                                                                   0000000000001800000001069STIPENDI MESE DI: GIUGNO 16                                                                                                                                                                                                                               01330                           0000000000000000000000000953000000000                                                         
U0009600010504220160000000000VERSAMENTO IMPOSTE PER I.R.A.P.  MESE DI: GIUGNO 16                                                                                                                                                                                                       0000000000070846000001326VERS. IMPOSTE MESE: GIUGNO 16 PER I.R.A.P.                                                                                                                                                                                                                01701                           0000000000000000000000000960000000000                                                         
U0010000110509020160000000000STIPENDI RELATIVI AL MESE DI: GIUGNO 16                                                                                                                                                                                                                   0000000000301417000001069STIPENDI MESE DI: GIUGNO 16                                                                                                                                                                                                                               01101                           0000000000695020000000001000000010000                                                         
U0010000110509020160000000000STIPENDI RELATIVI AL MESE DI: GIUGNO 16                                                                                                                                                                                                                   0000000000018411000001069STIPENDI MESE DI: GIUGNO 16                                                                                                                                                                                                                               01101                           0000000000054000000000001000000010000                                                         
U0010000110509020160000000000STIPENDI RELATIVI AL MESE DI: GIUGNO 16                                                                                                                                                                                                                   0000000000007889000001069STIPENDI MESE DI: GIUGNO 16                                                                                                                                                                                                                               01101                           0000000000018260000000001000000010000                                                         
U0010002010511520160000000000VERSAMENTO CONTRIBUTI O RITENUTE  MESE DI: GIUGNO 16                                                                                                                                                                                                      0000000000078774000000399VERS.CONTRIB. MESE: GIUGNO 16 A CARICO DELL`ENTE                                                                                                                                                                                                          01111         P201160606        0000000000000000000000001000000200000                                                         
U0010002010511520160000000000VERSAMENTO CONTRIBUTI O RITENUTE  MESE DI: GIUGNO 16                                                                                                                                                                                                      0000000000007971000000107VERS.CONTRIB. MESE: GIUGNO 16 A CARICO DELL`ENTE                                                                                                                                                                                                          01113         P608160606        0000000000000000000000001000000200000                                                         
U0010002010511520160000000000VERSAMENTO CONTRIBUTI O RITENUTE  MESE DI: GIUGNO 16                                                                                                                                                                                                      0000000000004781000000107VERS.CONTRIB. MESE: GIUGNO 16 A CARICO DELL`ENTE                                                                                                                                                                                                          01113         P607160606        0000000000000000000000001000000200000                                                         
U0011650010504320160000000000VERSAMENTO IMPOSTE PER I.R.A.P.  MESE DI: GIUGNO 16                                                                                                                                                                                                       0000000000028134000001326VERS. IMPOSTE MESE: GIUGNO 16 PER I.R.A.P.                                                                                                                                                                                                                01701                           0000000000000000000000001165000000000                                                         
U0012000110509120160000000000STIPENDI RELATIVI AL MESE DI: GIUGNO 16                                                                                                                                                                                                                   0000000000744450000001069STIPENDI MESE DI: GIUGNO 16                                                                                                                                                                                                                               01101                           0000000001087560000000001200000010000                                                         
U0012000110509120160000000000STIPENDI RELATIVI AL MESE DI: GIUGNO 16                                                                                                                                                                                                                   0000000000042169000001069STIPENDI MESE DI: GIUGNO 16                                                                                                                                                                                                                               01101                           0000000000056630000000001200000010000                                                         
U0012000110509120160000000000STIPENDI RELATIVI AL MESE DI: GIUGNO 16                                                                                                                                                                                                                   0000000000018378000001069STIPENDI MESE DI: GIUGNO 16                                                                                                                                                                                                                               01101                           0000000000026940000000001200000010000                                                         
U0012002010511620160000000000VERSAMENTO CONTRIBUTI O RITENUTE  MESE DI: GIUGNO 16                                                                                                                                                                                                      0000000000193109000000399VERS.CONTRIB. MESE: GIUGNO 16 A CARICO DELL`ENTE                                                                                                                                                                                                          01111         P201160606        0000000000000000000000001200000200000                                                         
U0012002010511620160000000000VERSAMENTO CONTRIBUTI O RITENUTE  MESE DI: GIUGNO 16                                                                                                                                                                                                      0000000000015570000000107VERS.CONTRIB. MESE: GIUGNO 16 A CARICO DELL`ENTE                                                                                                                                                                                                          01113         P608160606        0000000000000000000000001200000200000                                                         
U0012002010511620160000000000VERSAMENTO CONTRIBUTI O RITENUTE  MESE DI: GIUGNO 16                                                                                                                                                                                                      0000000000013770000000107VERS.CONTRIB. MESE: GIUGNO 16 A CARICO DELL`ENTE                                                                                                                                                                                                          01113         P607160606        0000000000000000000000001200000200000                                                         
U0012002510540220160000000000STIPENDI RELATIVI AL MESE DI: GIUGNO 16                                                                                                                                                                                                                   0000000000071075000001069STIPENDI MESE DI: GIUGNO 16                                                                                                                                                                                                                               01101                           0000000000000000000000001200000250000                                                         
U0012300010504420160000000000VERSAMENTO IMPOSTE PER I.R.A.P.  MESE DI: GIUGNO 16                                                                                                                                                                                                       0000000000068967000001326VERS. IMPOSTE MESE: GIUGNO 16 PER I.R.A.P.                                                                                                                                                                                                                01701                           0000000000000000000000001230000000000                                                         
U0012500110509220160000000000STIPENDI RELATIVI AL MESE DI: GIUGNO 16                                                                                                                                                                                                                   0000000000844934000001069STIPENDI MESE DI: GIUGNO 16                                                                                                                                                                                                                               01101                           0000000001905390000000001250000010000                                                         
U0012500110509220160000000000STIPENDI RELATIVI AL MESE DI: GIUGNO 16                                                                                                                                                                                                                   0000000000069192000001069STIPENDI MESE DI: GIUGNO 16                                                                                                                                                                                                                               01101                           0000000000168350000000001250000010000                                                         
U0012500110509220160000000000STIPENDI RELATIVI AL MESE DI: GIUGNO 16                                                                                                                                                                                                                   0000000000021828000001069STIPENDI MESE DI: GIUGNO 16                                                                                                                                                                                                                               01101                           0000000000049400000000001250000010000                                                         
U0012500110509220160000100000STIPENDI RELATIVI AL MESE DI: GIUGNO 16                                                                                                                                                                                                                   0000000000326347000001069STIPENDI MESE DI: GIUGNO 16                                                                                                                                                                                                                               01101                           0000000001286830000000001250000010000                                                         
U0012500110509220160000200000STIPENDI RELATIVI AL MESE DI: GIUGNO 16                                                                                                                                                                                                                   0000000000126166000001069STIPENDI MESE DI: GIUGNO 16                                                                                                                                                                                                                               01101                           0000000000497490000000001250000010000                                                         
U0012502010512420160000000000VERSAMENTO CONTRIBUTI O RITENUTE  MESE DI: GIUGNO 16                                                                                                                                                                                                      0000000000224540000000399VERS.CONTRIB. MESE: GIUGNO 16 A CARICO DELL`ENTE                                                                                                                                                                                                          01111         P201160606        0000000000000000000000001250000200000                                                         
U0012502010512420160000000000VERSAMENTO CONTRIBUTI O RITENUTE  MESE DI: GIUGNO 16                                                                                                                                                                                                      0000000000109896000000399VERS.CONTRIB. MESE: GIUGNO 16 A CARICO DELL`ENTE                                                                                                                                                                                                          01111         P201160606        0000000000000000000000001250000200000                                                         
U0012502010512420160000000000VERSAMENTO CONTRIBUTI O RITENUTE  MESE DI: GIUGNO 16                                                                                                                                                                                                      0000000000022533000000107VERS.CONTRIB. MESE: GIUGNO 16 A CARICO DELL`ENTE                                                                                                                                                                                                          01113         P608160606        0000000000000000000000001250000200000                                                         
U0012502010512420160000000000VERSAMENTO CONTRIBUTI O RITENUTE  MESE DI: GIUGNO 16                                                                                                                                                                                                      0000000000018292000000107VERS.CONTRIB. MESE: GIUGNO 16 A CARICO DELL`ENTE                                                                                                                                                                                                          01113         P608160606        0000000000000000000000001250000200000                                                         
U0012502010512420160000000000VERSAMENTO CONTRIBUTI O RITENUTE  MESE DI: GIUGNO 16                                                                                                                                                                                                      0000000000016308000000107VERS.CONTRIB. MESE: GIUGNO 16 A CARICO DELL`ENTE                                                                                                                                                                                                          01113         P607160606        0000000000000000000000001250000200000                                                         
U0014010010582220160000002016STIPENDI RELATIVI AL MESE DI: GIUGNO 16                                                                                                                                                                                                                   0000000000006610000001069STIPENDI MESE DI: GIUGNO 16                                                                                                                                                                                                                               01330                           0000000000000000000000001401000000000                                                         
U0014010010582220160000002016STIPENDI RELATIVI AL MESE DI: GIUGNO 16                                                                                                                                                                                                                   0000000000000880000001069STIPENDI MESE DI: GIUGNO 16                                                                                                                                                                                                                               01330                           0000000000000000000000001401000000000                                                         
U0015050010504520160000000000VERSAMENTO IMPOSTE PER I.R.A.P.  MESE DI: GIUGNO 16                                                                                                                                                                                                       0000000000080194000001326VERS. IMPOSTE MESE: GIUGNO 16 PER I.R.A.P.                                                                                                                                                                                                                01701                           0000000000000000000000001505000000000                                                         
U0015050010504520160000000000VERSAMENTO IMPOSTE PER I.R.A.P.  MESE DI: GIUGNO 16                                                                                                                                                                                                       0000000000039249000001326VERS. IMPOSTE MESE: GIUGNO 16 PER I.R.A.P.                                                                                                                                                                                                                01701                           0000000000000000000000001505000000000                                                         
U0015500110509320160000000000STIPENDI RELATIVI AL MESE DI: GIUGNO 16                                                                                                                                                                                                                   0000000000944854000001069STIPENDI MESE DI: GIUGNO 16                                                                                                                                                                                                                               01101                           0000000002025600000000001550000010000                                                         
U0015500110509320160000000000STIPENDI RELATIVI AL MESE DI: GIUGNO 16                                                                                                                                                                                                                   0000000000037414000001069STIPENDI MESE DI: GIUGNO 16                                                                                                                                                                                                                               01101                           0000000000087420000000001550000010000                                                         
U0015500110509320160000000000STIPENDI RELATIVI AL MESE DI: GIUGNO 16                                                                                                                                                                                                                   0000000000023112000001069STIPENDI MESE DI: GIUGNO 16                                                                                                                                                                                                                               01101                           0000000000049560000000001550000010000                                                         
U0015502010511720160000000000VERSAMENTO CONTRIBUTI O RITENUTE  MESE DI: GIUGNO 16                                                                                                                                                                                                      0000000000241540000000399VERS.CONTRIB. MESE: GIUGNO 16 A CARICO DELL`ENTE                                                                                                                                                                                                          01111         P201160606        0000000000000000000000001550000200000                                                         
U0015502010511720160000000000VERSAMENTO CONTRIBUTI O RITENUTE  MESE DI: GIUGNO 16                                                                                                                                                                                                      0000000000023169000000107VERS.CONTRIB. MESE: GIUGNO 16 A CARICO DELL`ENTE                                                                                                                                                                                                          01113         P608160606        0000000000000000000000001550000200000                                                         
U0015502010511720160000000000VERSAMENTO CONTRIBUTI O RITENUTE  MESE DI: GIUGNO 16                                                                                                                                                                                                      0000000000014996000000107VERS.CONTRIB. MESE: GIUGNO 16 A CARICO DELL`ENTE                                                                                                                                                                                                          01113         P607160606        0000000000000000000000001550000200000                                                         
U0015502510540320160000000000STIPENDI RELATIVI AL MESE DI: GIUGNO 16                                                                                                                                                                                                                   0000000000024259000001069STIPENDI MESE DI: GIUGNO 16                                                                                                                                                                                                                               01101                           0000000000000000000000001550000250000                                                         
U0016270010582620160000002016STIPENDI RELATIVI AL MESE DI: GIUGNO 16                                                                                                                                                                                                                   0000000000001540000001069STIPENDI MESE DI: GIUGNO 16                                                                                                                                                                                                                               01330                           0000000000000000000000001627000000000                                                         
U0016520010504620160000000000VERSAMENTO IMPOSTE PER I.R.A.P.  MESE DI: GIUGNO 16                                                                                                                                                                                                       0000000000086265000001326VERS. IMPOSTE MESE: GIUGNO 16 PER I.R.A.P.                                                                                                                                                                                                                01701                           0000000000000000000000001652000000000                                                         
U0016800010522720160000000000STIPENDI RELATIVI AL MESE DI: GIUGNO 16                                                                                                                                                                                                                   0000000000067507000001069STIPENDI MESE DI: GIUGNO 16                                                                                                                                                                                                                               01101                           00000000000014x0000000001680000000000                                                         
U0016800010522720160000000000STIPENDI RELATIVI AL MESE DI: GIUGNO 16                                                                                                                                                                                                                   0000000000002374000001069STIPENDI MESE DI: GIUGNO 16                                                                                                                                                                                                                               01101                           00000000000000t0000000001680000000000                                                         
U0016800010522720160000000000STIPENDI RELATIVI AL MESE DI: GIUGNO 16                                                                                                                                                                                                                   0000000000001466000001069STIPENDI MESE DI: GIUGNO 16                                                                                                                                                                                                                               01101                           00000000000000u0000000001680000000000                                                         
U0016810010577220160000002016VERSAMENTO IMPOSTE PER I.R.A.P.  MESE DI: GIUGNO 16                                                                                                                                                                                                       0000000000014273000001326VERS. IMPOSTE MESE: GIUGNO 16 PER I.R.A.P.                                                                                                                                                                                                                01701                           0000000000000000000000001681000000000                                                         
U0016810110577020160000002016STIPENDI RELATIVI AL MESE DI: GIUGNO 16                                                                                                                                                                                                                   0000000000160501000001069STIPENDI MESE DI: GIUGNO 16                                                                                                                                                                                                                               01101                           0000000000311590000000001681000010000                                                         
U0016810110577020160000002016STIPENDI RELATIVI AL MESE DI: GIUGNO 16                                                                                                                                                                                                                   0000000000004146000001069STIPENDI MESE DI: GIUGNO 16                                                                                                                                                                                                                               01101                           0000000000008050000000001681000010000                                                         
U0016812010577120160000002016VERSAMENTO CONTRIBUTI O RITENUTE  MESE DI: GIUGNO 16                                                                                                                                                                                                      0000000000039964000000399VERS.CONTRIB. MESE: GIUGNO 16 A CARICO DELL`ENTE                                                                                                                                                                                                          01111         P201160606        0000000000000000000000001681000200000                                                         
U0016812010577120160000002016VERSAMENTO CONTRIBUTI O RITENUTE  MESE DI: GIUGNO 16                                                                                                                                                                                                      0000000000007971000000107VERS.CONTRIB. MESE: GIUGNO 16 A CARICO DELL`ENTE                                                                                                                                                                                                          01113         P608160606        0000000000000000000000001681000200000                                                         
U0016850010522820160000000000VERSAMENTO CONTRIBUTI O RITENUTE  MESE DI: GIUGNO 16                                                                                                                                                                                                      0000000000017319000000399VERS.CONTRIB. MESE: GIUGNO 16 A CARICO DELL`ENTE                                                                                                                                                                                                          01111         P201160606        0000000000000000000000001685000000000                                                         
U0016850010522820160000000000VERSAMENTO CONTRIBUTI O RITENUTE  MESE DI: GIUGNO 16                                                                                                                                                                                                      0000000000003472000000107VERS.CONTRIB. MESE: GIUGNO 16 A CARICO DELL`ENTE                                                                                                                                                                                                          01113         P608160606        0000000000000000000000001685000000000                                                         
U0017510010522920160000000000VERSAMENTO IMPOSTE PER I.R.A.P.  MESE DI: GIUGNO 16                                                                                                                                                                                                       0000000000006185000001326VERS. IMPOSTE MESE: GIUGNO 16 PER I.R.A.P.                                                                                                                                                                                                                01701                           0000000000000000000000001751000000000                                                         
U0018500110509420160000000000STIPENDI RELATIVI AL MESE DI: GIUGNO 16                                                                                                                                                                                                                   0000000001238580000001069STIPENDI MESE DI: GIUGNO 16                                                                                                                                                                                                                               01101                           0000000003499220000000001850000010000                                                         
U0018500110509420160000000000STIPENDI RELATIVI AL MESE DI: GIUGNO 16                                                                                                                                                                                                                   0000000000093035000001069STIPENDI MESE DI: GIUGNO 16                                                                                                                                                                                                                               01101                           0000000000307320000000001850000010000                                                         
U0018500110509420160000000000STIPENDI RELATIVI AL MESE DI: GIUGNO 16                                                                                                                                                                                                                   0000000000029086000001069STIPENDI MESE DI: GIUGNO 16                                                                                                                                                                                                                               01101                           0000000000082180000000001850000010000                                                         
U0018502010511820160000000000VERSAMENTO CONTRIBUTI O RITENUTE  MESE DI: GIUGNO 16                                                                                                                                                                                                      0000000000324710000000399VERS.CONTRIB. MESE: GIUGNO 16 A CARICO DELL`ENTE                                                                                                                                                                                                          01111         P201160606        0000000000000000000000001850000200000                                                         
U0018502010511820160000000000VERSAMENTO CONTRIBUTI O RITENUTE  MESE DI: GIUGNO 16                                                                                                                                                                                                      0000000000034101000000107VERS.CONTRIB. MESE: GIUGNO 16 A CARICO DELL`ENTE                                                                                                                                                                                                          01113         P607160606        0000000000000000000000001850000200000                                                         
U0018502010511820160000000000VERSAMENTO CONTRIBUTI O RITENUTE  MESE DI: GIUGNO 16                                                                                                                                                                                                      0000000000008840000000107VERS.CONTRIB. MESE: GIUGNO 16 A CARICO DELL`ENTE                                                                                                                                                                                                          01113         P608160606        0000000000000000000000001850000200000                                                         
U0018502510540420160000000000STIPENDI RELATIVI AL MESE DI: GIUGNO 16                                                                                                                                                                                                                   0000000000048869000001069STIPENDI MESE DI: GIUGNO 16                                                                                                                                                                                                                               01101                           0000000000000000000000001850000250000                                                         
U0021550010504720160000000000VERSAMENTO IMPOSTE PER I.R.A.P.  MESE DI: GIUGNO 16                                                                                                                                                                                                       0000000000101620000001326VERS. IMPOSTE MESE: GIUGNO 16 PER I.R.A.P.                                                                                                                                                                                                                01701                           0000000000000000000000002155000000000                                                         
U0028100010521420160000000000STIPENDI RELATIVI AL MESE DI: GIUGNO 16                                                                                                                                                                                                                   0000000000353454000001069STIPENDI MESE DI: GIUGNO 16                                                                                                                                                                                                                               01101                           0000000001107510000000002810000000000                                                         
U0028100010521420160000000000STIPENDI RELATIVI AL MESE DI: GIUGNO 16                                                                                                                                                                                                                   0000000000150367000001069STIPENDI MESE DI: GIUGNO 16                                                                                                                                                                                                                               01104                           0000000000243650000000002810000000000                                                         
U0028100010521420160000000000STIPENDI RELATIVI AL MESE DI: GIUGNO 16                                                                                                                                                                                                                   0000000000022526000001069STIPENDI MESE DI: GIUGNO 16                                                                                                                                                                                                                               01101                           0000000000074030000000002810000000000                                                         
U0028100010521420160000000000STIPENDI RELATIVI AL MESE DI: GIUGNO 16                                                                                                                                                                                                                   0000000000008841000001069STIPENDI MESE DI: GIUGNO 16                                                                                                                                                                                                                               01101                           0000000000027400000000002810000000000                                                         
U0028100010521420160000000000STIPENDI RELATIVI AL MESE DI: GIUGNO 16                                                                                                                                                                                                                   0000000000003558000001069STIPENDI MESE DI: GIUGNO 16                                                                                                                                                                                                                               01104                           0000000000005770000000002810000000000                                                         
U0028110010108220160000100000STIPENDI RELATIVI AL MESE DI: GIUGNO 16                                                                                                                                                                                                                   0000000000114545000001069STIPENDI MESE DI: GIUGNO 16                                                                                                                                                                                                                               01103                           0000000000432060000000002811000000000                                                         
U0028112010108220160000300000VERSAMENTO CONTRIBUTI O RITENUTE  MESE DI: GIUGNO 16                                                                                                                                                                                                      0000000000027284000001805VERS.CONTRIB. MESE: GIUGNO 16 A CARICO DELL`ENTE                                                                                                                                                                                                          01111                           0000000000000000000000002811000200000                                                         
U0028250010521320160000000000VERSAMENTO CONTRIBUTI O RITENUTE  MESE DI: GIUGNO 16                                                                                                                                                                                                      0000000000082967000000399VERS.CONTRIB. MESE: GIUGNO 16 A CARICO DELL`ENTE                                                                                                                                                                                                          01111         P201160606        0000000000000000000000002825000000000                                                         
U0028250010521320160000000000VERSAMENTO CONTRIBUTI O RITENUTE  MESE DI: GIUGNO 16                                                                                                                                                                                                      0000000000046023000001805VERS.CONTRIB. MESE: GIUGNO 16 A CARICO DELL`ENTE                                                                                                                                                                                                          01111                           0000000000000000000000002825000000000                                                         
U0028250010521320160000000000VERSAMENTO CONTRIBUTI O RITENUTE  MESE DI: GIUGNO 16                                                                                                                                                                                                      0000000000010801000000107VERS.CONTRIB. MESE: GIUGNO 16 A CARICO DELL`ENTE                                                                                                                                                                                                          01113         P607160606        0000000000000000000000002825000000000                                                         
U0028250010521320160000000000VERSAMENTO CONTRIBUTI O RITENUTE  MESE DI: GIUGNO 16                                                                                                                                                                                                      0000000000007469000000107VERS.CONTRIB. MESE: GIUGNO 16 A CARICO DELL`ENTE                                                                                                                                                                                                          01113         P608160606        0000000000000000000000002825000000000                                                         
U0028250010521320160000002016VERSAMENTO CONTRIBUTI O RITENUTE  MESE DI: GIUGNO 16                                                                                                                                                                                                      0000000000002528000000109VERS.CONTRIB. MESE: GIUGNO 16 A CARICO DELL`ENTE                                                                                                                                                                                                          01111                           0000000000000000000000002825000000000                                                         
U0030050010000120150000000000STIPENDI RELATIVI AL MESE DI: GIUGNO 16                                                                                                                                                                                                                   0000000000114545000001069STIPENDI MESE DI: GIUGNO 16                                                                                                                                                                                                                               01103                           0000000000432060000000003005000000000                                                         
U0030050010000120150000100000VERSAMENTO CONTRIBUTI O RITENUTE  MESE DI: GIUGNO 16                                                                                                                                                                                                      0000000000027284000001805VERS.CONTRIB. MESE: GIUGNO 16 A CARICO DELL`ENTE                                                                                                                                                                                                          01111                           0000000000000000000000003005000000000                                                         
U0030530010521820160000000000VERSAMENTO IMPOSTE PER I.R.A.P.  MESE DI: GIUGNO 16                                                                                                                                                                                                       0000000000029767000001326VERS. IMPOSTE MESE: GIUGNO 16 PER I.R.A.P.                                                                                                                                                                                                                01701                           0000000000000000000000003053000000000                                                         
U0031000110509820160000000000STIPENDI RELATIVI AL MESE DI: GIUGNO 16                                                                                                                                                                                                                   0000000001184782000001069STIPENDI MESE DI: GIUGNO 16                                                                                                                                                                                                                               01101                           0000000002677490000000003100000010000                                                         
U0031000110509820160000000000STIPENDI RELATIVI AL MESE DI: GIUGNO 16                                                                                                                                                                                                                   0000000000075643000001069STIPENDI MESE DI: GIUGNO 16                                                                                                                                                                                                                               01101                           0000000000193940000000003100000010000                                                         
U0031000110509820160000000000STIPENDI RELATIVI AL MESE DI: GIUGNO 16                                                                                                                                                                                                                   0000000000030413000001069STIPENDI MESE DI: GIUGNO 16                                                                                                                                                                                                                               01101                           0000000000069150000000003100000010000                                                         
U0031002010511920160000000000VERSAMENTO CONTRIBUTI O RITENUTE  MESE DI: GIUGNO 16                                                                                                                                                                                                      0000000000310330000000399VERS.CONTRIB. MESE: GIUGNO 16 A CARICO DELL`ENTE                                                                                                                                                                                                          01111         P201160606        0000000000000000000000003100000200000                                                         
U0031002010511920160000000000VERSAMENTO CONTRIBUTI O RITENUTE  MESE DI: GIUGNO 16                                                                                                                                                                                                      0000000000031869000000107VERS.CONTRIB. MESE: GIUGNO 16 A CARICO DELL`ENTE                                                                                                                                                                                                          01113         P608160606        0000000000000000000000003100000200000                                                         
U0031002010511920160000000000VERSAMENTO CONTRIBUTI O RITENUTE  MESE DI: GIUGNO 16                                                                                                                                                                                                      0000000000018198000000107VERS.CONTRIB. MESE: GIUGNO 16 A CARICO DELL`ENTE                                                                                                                                                                                                          01113         P607160606        0000000000000000000000003100000200000                                                         
U0031002510540520160000000000STIPENDI RELATIVI AL MESE DI: GIUGNO 16                                                                                                                                                                                                                   0000000000005144000001069STIPENDI MESE DI: GIUGNO 16                                                                                                                                                                                                                               01101                           0000000000000000000000003100000250000                                                         
U0033550010582020160000002016STIPENDI RELATIVI AL MESE DI: GIUGNO 16                                                                                                                                                                                                                   0000000000007260000001069STIPENDI MESE DI: GIUGNO 16                                                                                                                                                                                                                               01330                           0000000000000000000000003355000000000                                                         
U0034100010505120160000000000VERSAMENTO IMPOSTE PER I.R.A.P.  MESE DI: GIUGNO 16                                                                                                                                                                                                       0000000000110833000001326VERS. IMPOSTE MESE: GIUGNO 16 PER I.R.A.P.                                                                                                                                                                                                                01701                           0000000000000000000000003410000000000                                                         
U0037000110510020160000000000STIPENDI RELATIVI AL MESE DI: GIUGNO 16                                                                                                                                                                                                                   0000000000139800000001069STIPENDI MESE DI: GIUGNO 16                                                                                                                                                                                                                               01101                           0000000000257000000000003700000010000                                                         
U0037000110510020160000000000STIPENDI RELATIVI AL MESE DI: GIUGNO 16                                                                                                                                                                                                                   0000000000010432000001069STIPENDI MESE DI: GIUGNO 16                                                                                                                                                                                                                               01101                           0000000000019180000000003700000010000                                                         
U0037000110510020160000000000STIPENDI RELATIVI AL MESE DI: GIUGNO 16                                                                                                                                                                                                                   0000000000003558000001069STIPENDI MESE DI: GIUGNO 16                                                                                                                                                                                                                               01101                           0000000000006540000000003700000010000                                                         
U0037002010512920160000000000VERSAMENTO CONTRIBUTI O RITENUTE  MESE DI: GIUGNO 16                                                                                                                                                                                                      0000000000036602000000399VERS.CONTRIB. MESE: GIUGNO 16 A CARICO DELL`ENTE                                                                                                                                                                                                          01111         P201160606        0000000000000000000000003700000200000                                                         
U0037002010512920160000000000VERSAMENTO CONTRIBUTI O RITENUTE  MESE DI: GIUGNO 16                                                                                                                                                                                                      0000000000004488000000107VERS.CONTRIB. MESE: GIUGNO 16 A CARICO DELL`ENTE                                                                                                                                                                                                          01113         P607160606        0000000000000000000000003700000200000                                                         
U0037002510540620160000000000STIPENDI RELATIVI AL MESE DI: GIUGNO 16                                                                                                                                                                                                                   0000000000009798000001069STIPENDI MESE DI: GIUGNO 16                                                                                                                                                                                                                               01101                           0000000000000000000000003700000250000                                                         
U0039100010505320160000000000VERSAMENTO IMPOSTE PER I.R.A.P.  MESE DI: GIUGNO 16                                                                                                                                                                                                       0000000000013072000001326VERS. IMPOSTE MESE: GIUGNO 16 PER I.R.A.P.                                                                                                                                                                                                                01701                           0000000000000000000000003910000000000                                                         
U0039500110510120160000000000STIPENDI RELATIVI AL MESE DI: GIUGNO 16                                                                                                                                                                                                                   0000000000171372000001069STIPENDI MESE DI: GIUGNO 16                                                                                                                                                                                                                               01101                           0000000000416480000000003950000010000                                                         
U0039500110510120160000000000STIPENDI RELATIVI AL MESE DI: GIUGNO 16                                                                                                                                                                                                                   0000000000004695000001069STIPENDI MESE DI: GIUGNO 16                                                                                                                                                                                                                               01101                           0000000000011410000000003950000010000                                                         
U0039502010513020160000000000VERSAMENTO CONTRIBUTI O RITENUTE  MESE DI: GIUGNO 16                                                                                                                                                                                                      0000000000041904000000399VERS.CONTRIB. MESE: GIUGNO 16 A CARICO DELL`ENTE                                                                                                                                                                                                          01111         P201160606        0000000000000000000000003950000200000                                                         
U0039502010513020160000000000VERSAMENTO CONTRIBUTI O RITENUTE  MESE DI: GIUGNO 16                                                                                                                                                                                                      0000000000004134000000107VERS.CONTRIB. MESE: GIUGNO 16 A CARICO DELL`ENTE                                                                                                                                                                                                          01113         P607160606        0000000000000000000000003950000200000                                                         
U0039502510540720160000000000STIPENDI RELATIVI AL MESE DI: GIUGNO 16                                                                                                                                                                                                                   0000000000004059000001069STIPENDI MESE DI: GIUGNO 16                                                                                                                                                                                                                               01101                           0000000000000000000000003950000250000                                                         
U0041200010505420160000000000VERSAMENTO IMPOSTE PER I.R.A.P.  MESE DI: GIUGNO 16                                                                                                                                                                                                       0000000000014966000001326VERS. IMPOSTE MESE: GIUGNO 16 PER I.R.A.P.                                                                                                                                                                                                                01701                           0000000000000000000000004120000000000                                                         
U0041500110510220160000000000STIPENDI RELATIVI AL MESE DI: GIUGNO 16                                                                                                                                                                                                                   0000000000409837000001069STIPENDI MESE DI: GIUGNO 16                                                                                                                                                                                                                               01101                           0000000000788840000000004150000010000                                                         
U0041500110510220160000000000STIPENDI RELATIVI AL MESE DI: GIUGNO 16                                                                                                                                                                                                                   0000000000013507000001069STIPENDI MESE DI: GIUGNO 16                                                                                                                                                                                                                               01101                           0000000000025830000000004150000010000                                                         
U0041500110510220160000000000STIPENDI RELATIVI AL MESE DI: GIUGNO 16                                                                                                                                                                                                                   0000000000009995000001069STIPENDI MESE DI: GIUGNO 16                                                                                                                                                                                                                               01101                           0000000000018880000000004150000010000                                                         
U0041502010512020160000000000VERSAMENTO CONTRIBUTI O RITENUTE  MESE DI: GIUGNO 16                                                                                                                                                                                                      0000000000104393000000399VERS.CONTRIB. MESE: GIUGNO 16 A CARICO DELL`ENTE                                                                                                                                                                                                          01111         P201160606        0000000000000000000000004150000200000                                                         
