A0000253072016000Ordinaria                00                                                                                                                                                                                                                                                                                                                                                                                                                                                                                                                                                                                                                                                            
E0080000010001120160000000000RITENUTE SU EMOLUMENTI MESE DI: LUGLIO 16                                                                                                                                                                                                                 0000000001440314000100002RITEN.CONTRIB.MESE: LUGLIO 16 A CARICO DEL PERSONALE DIPENDEN.                                                                                                                                                                                            06101                           0000000000000000000000008000000000000                                                         
E0080000010001120160000002016RITENUTE SU EMOLUMENTI MESE DI: LUGLIO 16                                                                                                                                                                                                                 0000000000010907000100002RITEN.CONTRIB.MESE: LUGLIO 16 A CARICO DEL PERSONALE DIPENDEN.                                                                                                                                                                                            06101                           0000000000000000000000008000000000000                                                         
E0081000110001720160000000000RITENUTE SU EMOLUMENTI MESE DI: LUGLIO 16                                                                                                                                                                                                                 0000000002768965000100002RIT.ACC.IRPEF MESE: LUGLIO 16                                                                                                                                                                                                                             06201                           0000000000000000000000008100000010000                                                         
E0081000110001720160000002016RITENUTE SU EMOLUMENTI MESE DI: LUGLIO 16                                                                                                                                                                                                                 0000000000257085000100002RITENUTE DEL MESE: LUGLIO 16 PER ADDIZIONALE REGIONALE                                                                                                                                                                                                    06201                           0000000000000000000000008100000010000                                                         
E0083000910001820160000102016RITENUTE SU EMOLUMENTI MESE DI: LUGLIO 16                                                                                                                                                                                                                 0000000000096141000100002RITENUTE QUOTE MESE LUGLIO 16 PER CONTO TERZI.                                                                                                                                                                                                            06301                           0000000000000000000000008300000090000                                                         
E0083000910001820160000102016RITENUTE SU EMOLUMENTI MESE DI: LUGLIO 16                                                                                                                                                                                                                 0000000000048893000100002RITENUTE QUOTE MESE LUGLIO 16 PER CONTO TERZI.                                                                                                                                                                                                            06301                           0000000000000000000000008300000090000                                                         
E0083000910001820160000102016RITENUTE SU EMOLUMENTI MESE DI: LUGLIO 16                                                                                                                                                                                                                 0000000000032176000100002RITENUTE QUOTE MESE LUGLIO 16 PER CONTO TERZI.                                                                                                                                                                                                            06501                           0000000000000000000000008300000090000                                                         
E0083001010511120160000100000RITENUTE SU EMOLUMENTI MESE DI: LUGLIO 16                                                                                                                                                                                                                 0000000000042621000100002RITENUTE QUOTE MESE LUGLIO 16 PER CONTO TERZI.                                                                                                                                                                                                            06301                           0000000000000000000000008300000100000                                                         
U0001000110511120160000000000STIPENDI RELATIVI AL MESE DI: LUGLIO 16                                                                                                                                                                                                                   0000000000833037000001112STIPENDI MESE DI: LUGLIO 16                                                                                                                                                                                                                               01325                           0000000000612260000000000100000010000                                                         
U0002610010521520160000002016VERSAMENTO IMPOSTE PER I.R.A.P.  MESE DI: LUGLIO 16                                                                                                                                                                                                       0000000000070810000001326VERS. IMPOSTE MESE: LUGLIO 16 PER I.R.A.P.                                                                                                                                                                                                                01701                           0000000000000000000000000261000000000                                                         
U0003000110500820160000000000STIPENDI RELATIVI AL MESE DI: LUGLIO 16                                                                                                                                                                                                                   0000000001635258000001069STIPENDI MESE DI: LUGLIO 16                                                                                                                                                                                                                               01101                           0000000002875950000000000300000010000                                                         
U0003000110500820160000000000STIPENDI RELATIVI AL MESE DI: LUGLIO 16                                                                                                                                                                                                                   0000000000050670000001069STIPENDI MESE DI: LUGLIO 16                                                                                                                                                                                                                               01101                           00000000000370v0000000000300000010000                                                         
U0003000110500820160000000000STIPENDI RELATIVI AL MESE DI: LUGLIO 16                                                                                                                                                                                                                   0000000000028919000001069STIPENDI MESE DI: LUGLIO 16                                                                                                                                                                                                                               01101                           00000000000059r0000000000300000010000                                                         
U0003001410001420160000002015STIPENDI RELATIVI AL MESE DI: LUGLIO 16                                                                                                                                                                                                                   0000000000034923000001069STIPENDI MESE DI: LUGLIO 16                                                                                                                                                                                                                               01103                           0000000000055370000000000300000140000                                                         
U0003001410001420160000002015STIPENDI RELATIVI AL MESE DI: LUGLIO 16                                                                                                                                                                                                                   0000000000027012000001069STIPENDI MESE DI: LUGLIO 16                                                                                                                                                                                                                               01103                           0000000000062450000000000300000140000                                                         
U0003001410001420160000002015STIPENDI RELATIVI AL MESE DI: LUGLIO 16                                                                                                                                                                                                                   0000000000007911000001069STIPENDI MESE DI: LUGLIO 16                                                                                                                                                                                                                               01103                           00000000000070x0000000000300000140000                                                         
U0003002010512220160000000000VERSAMENTO CONTRIBUTI O RITENUTE  MESE DI: LUGLIO 16                                                                                                                                                                                                      0000000000410096000000399VERS.CONTRIB. MESE: LUGLIO 16 A CARICO DELL`ENTE                                                                                                                                                                                                          01111         P201160707        0000000000000000000000000300000200000                                                         
U0003002010512220160000000000VERSAMENTO CONTRIBUTI O RITENUTE  MESE DI: LUGLIO 16                                                                                                                                                                                                      0000000000035435000000107VERS.CONTRIB. MESE: LUGLIO 16 A CARICO DELL`ENTE                                                                                                                                                                                                          01113         P607160707        0000000000000000000000000300000200000                                                         
U0003002010512220160000000000VERSAMENTO CONTRIBUTI O RITENUTE  MESE DI: LUGLIO 16                                                                                                                                                                                                      0000000000020107000000107VERS.CONTRIB. MESE: LUGLIO 16 A CARICO DELL`ENTE                                                                                                                                                                                                          01113         P608160707        0000000000000000000000000300000200000                                                         
U0003002510540020160000000000STIPENDI RELATIVI AL MESE DI: LUGLIO 16                                                                                                                                                                                                                   0000000000012055000001069STIPENDI MESE DI: LUGLIO 16                                                                                                                                                                                                                               01101                           0000000000000000000000000300000250000                                                         
U0003500010580020160000002016STIPENDI RELATIVI AL MESE DI: LUGLIO 16                                                                                                                                                                                                                   0000000000027882000000001STIPENDI MESE DI: LUGLIO 16                                                                                                                                                                                                                               01102                           0000000000070550000000000350000000000                                                         
U0003500010580020160000002016STIPENDI RELATIVI AL MESE DI: LUGLIO 16                                                                                                                                                                                                                   0000000000023243000000001STIPENDI MESE DI: LUGLIO 16                                                                                                                                                                                                                               01102                           0000000000035340000000000350000000000                                                         
U0003500010580120160000002016STIPENDI RELATIVI AL MESE DI: LUGLIO 16                                                                                                                                                                                                                   0000000000082830000000001STIPENDI MESE DI: LUGLIO 16                                                                                                                                                                                                                               01102                           0000000000146460000000000350000000000                                                         
U0003500010580220160000002016STIPENDI RELATIVI AL MESE DI: LUGLIO 16                                                                                                                                                                                                                   0000000000070772000000001STIPENDI MESE DI: LUGLIO 16                                                                                                                                                                                                                               01102                           00000000000559t0000000000350000000000                                                         
U0003500010580220160000002016STIPENDI RELATIVI AL MESE DI: LUGLIO 16                                                                                                                                                                                                                   0000000000041541000000001STIPENDI MESE DI: LUGLIO 16                                                                                                                                                                                                                               01102                           00000000001082v0000000000350000000000                                                         
U0003500010580220160000002016STIPENDI RELATIVI AL MESE DI: LUGLIO 16                                                                                                                                                                                                                   0000000000037033000000001STIPENDI MESE DI: LUGLIO 16                                                                                                                                                                                                                               01102                           0000000000090130000000000350000000000                                                         
U0003500010580220160000002016STIPENDI RELATIVI AL MESE DI: LUGLIO 16                                                                                                                                                                                                                   0000000000013200000000001STIPENDI MESE DI: LUGLIO 16                                                                                                                                                                                                                               01102                           0000000000025900000000000350000000000                                                         
U0003500010580220160000002016STIPENDI RELATIVI AL MESE DI: LUGLIO 16                                                                                                                                                                                                                   0000000000010861000000001STIPENDI MESE DI: LUGLIO 16                                                                                                                                                                                                                               01102                           0000000000024860000000000350000000000                                                         
U0003500010580420160000002016STIPENDI RELATIVI AL MESE DI: LUGLIO 16                                                                                                                                                                                                                   0000000000018393000000001STIPENDI MESE DI: LUGLIO 16                                                                                                                                                                                                                               01102                           00000000000176r0000000000350000000000                                                         
U0003500010580420160000002016STIPENDI RELATIVI AL MESE DI: LUGLIO 16                                                                                                                                                                                                                   0000000000003239000000001STIPENDI MESE DI: LUGLIO 16                                                                                                                                                                                                                               01102                           00000000000132w0000000000350000000000                                                         
U0003500010580620160000002016STIPENDI RELATIVI AL MESE DI: LUGLIO 16                                                                                                                                                                                                                   0000000000061272000000001STIPENDI MESE DI: LUGLIO 16                                                                                                                                                                                                                               01102                           00000000001889y0000000000350000000000                                                         
U0003502010580720160000002016VERSAMENTO CONTRIBUTI O RITENUTE  MESE DI: LUGLIO 16                                                                                                                                                                                                      0000000000019714000000399VERS.CONTRIB. MESE: LUGLIO 16 A CARICO DELL`ENTE                                                                                                                                                                                                          01111         P201160707        0000000000000000000000000350000200000                                                         
U0003502010580720160000002016VERSAMENTO CONTRIBUTI O RITENUTE  MESE DI: LUGLIO 16                                                                                                                                                                                                      0000000000016845000000399VERS.CONTRIB. MESE: LUGLIO 16 A CARICO DELL`ENTE                                                                                                                                                                                                          01111         P201160707        0000000000000000000000000350000200000                                                         
U0003502010580720160000002016VERSAMENTO CONTRIBUTI O RITENUTE  MESE DI: LUGLIO 16                                                                                                                                                                                                      0000000000014583000000399VERS.CONTRIB. MESE: LUGLIO 16 A CARICO DELL`ENTE                                                                                                                                                                                                          01111         P201160707        0000000000000000000000000350000200000                                                         
U0003502010580720160000002016VERSAMENTO CONTRIBUTI O RITENUTE  MESE DI: LUGLIO 16                                                                                                                                                                                                      0000000000009887000000399VERS.CONTRIB. MESE: LUGLIO 16 A CARICO DELL`ENTE                                                                                                                                                                                                          01111         P201160707        0000000000000000000000000350000200000                                                         
U0003502010580720160000002016VERSAMENTO CONTRIBUTI O RITENUTE  MESE DI: LUGLIO 16                                                                                                                                                                                                      0000000000008814000000399VERS.CONTRIB. MESE: LUGLIO 16 A CARICO DELL`ENTE                                                                                                                                                                                                          01111         P201160707        0000000000000000000000000350000200000                                                         
U0003502010580720160000002016VERSAMENTO CONTRIBUTI O RITENUTE  MESE DI: LUGLIO 16                                                                                                                                                                                                      0000000000006636000000399VERS.CONTRIB. MESE: LUGLIO 16 A CARICO DELL`ENTE                                                                                                                                                                                                          01111         P201160707        0000000000000000000000000350000200000                                                         
U0003502010580720160000002016VERSAMENTO CONTRIBUTI O RITENUTE  MESE DI: LUGLIO 16                                                                                                                                                                                                      0000000000005532000000399VERS.CONTRIB. MESE: LUGLIO 16 A CARICO DELL`ENTE                                                                                                                                                                                                          01111         P201160707        0000000000000000000000000350000200000                                                         
U0003502010580720160000002016VERSAMENTO CONTRIBUTI O RITENUTE  MESE DI: LUGLIO 16                                                                                                                                                                                                      0000000000004378000000399VERS.CONTRIB. MESE: LUGLIO 16 A CARICO DELL`ENTE                                                                                                                                                                                                          01111         P201160707        0000000000000000000000000350000200000                                                         
U0003502010580720160000002016VERSAMENTO CONTRIBUTI O RITENUTE  MESE DI: LUGLIO 16                                                                                                                                                                                                      0000000000003142000000399VERS.CONTRIB. MESE: LUGLIO 16 A CARICO DELL`ENTE                                                                                                                                                                                                          01111         P201160707        0000000000000000000000000350000200000                                                         
U0003502010580720160000002016VERSAMENTO CONTRIBUTI O RITENUTE  MESE DI: LUGLIO 16                                                                                                                                                                                                      0000000000002585000000399VERS.CONTRIB. MESE: LUGLIO 16 A CARICO DELL`ENTE                                                                                                                                                                                                          01111         P201160707        0000000000000000000000000350000200000                                                         
U0003502010580720160000002016VERSAMENTO CONTRIBUTI O RITENUTE  MESE DI: LUGLIO 16                                                                                                                                                                                                      0000000000000771000000399VERS.CONTRIB. MESE: LUGLIO 16 A CARICO DELL`ENTE                                                                                                                                                                                                          01111         P201160707        0000000000000000000000000350000200000                                                         
U0003503010580820160000002016VERSAMENTO IMPOSTE PER I.R.A.P.  MESE DI: LUGLIO 16                                                                                                                                                                                                       0000000000007041000001326VERS. IMPOSTE MESE: LUGLIO 16 PER I.R.A.P.                                                                                                                                                                                                                01701                           0000000000000000000000000350000300000                                                         
U0003503010580820160000002016VERSAMENTO IMPOSTE PER I.R.A.P.  MESE DI: LUGLIO 16                                                                                                                                                                                                       0000000000006016000001326VERS. IMPOSTE MESE: LUGLIO 16 PER I.R.A.P.                                                                                                                                                                                                                01701                           0000000000000000000000000350000300000                                                         
U0003503010580820160000002016VERSAMENTO IMPOSTE PER I.R.A.P.  MESE DI: LUGLIO 16                                                                                                                                                                                                       0000000000004441000001326VERS. IMPOSTE MESE: LUGLIO 16 PER I.R.A.P.                                                                                                                                                                                                                01701                           0000000000000000000000000350000300000                                                         
U0003503010580820160000002016VERSAMENTO IMPOSTE PER I.R.A.P.  MESE DI: LUGLIO 16                                                                                                                                                                                                       0000000000002563000001326VERS. IMPOSTE MESE: LUGLIO 16 PER I.R.A.P.                                                                                                                                                                                                                01701                           0000000000000000000000000350000300000                                                         
U0003503010580820160000002016VERSAMENTO IMPOSTE PER I.R.A.P.  MESE DI: LUGLIO 16                                                                                                                                                                                                       0000000000002369000001326VERS. IMPOSTE MESE: LUGLIO 16 PER I.R.A.P.                                                                                                                                                                                                                01701                           0000000000000000000000000350000300000                                                         
U0003503010580820160000002016VERSAMENTO IMPOSTE PER I.R.A.P.  MESE DI: LUGLIO 16                                                                                                                                                                                                       0000000000001976000001326VERS. IMPOSTE MESE: LUGLIO 16 PER I.R.A.P.                                                                                                                                                                                                                01701                           0000000000000000000000000350000300000                                                         
U0003503010580820160000002016VERSAMENTO IMPOSTE PER I.R.A.P.  MESE DI: LUGLIO 16                                                                                                                                                                                                       0000000000001614000001326VERS. IMPOSTE MESE: LUGLIO 16 PER I.R.A.P.                                                                                                                                                                                                                01701                           0000000000000000000000000350000300000                                                         
U0003503010580820160000002016VERSAMENTO IMPOSTE PER I.R.A.P.  MESE DI: LUGLIO 16                                                                                                                                                                                                       0000000000001563000001326VERS. IMPOSTE MESE: LUGLIO 16 PER I.R.A.P.                                                                                                                                                                                                                01701                           0000000000000000000000000350000300000                                                         
U0003503010580820160000002016VERSAMENTO IMPOSTE PER I.R.A.P.  MESE DI: LUGLIO 16                                                                                                                                                                                                       0000000000001122000001326VERS. IMPOSTE MESE: LUGLIO 16 PER I.R.A.P.                                                                                                                                                                                                                01701                           0000000000000000000000000350000300000                                                         
U0003503010580820160000002016VERSAMENTO IMPOSTE PER I.R.A.P.  MESE DI: LUGLIO 16                                                                                                                                                                                                       0000000000000923000001326VERS. IMPOSTE MESE: LUGLIO 16 PER I.R.A.P.                                                                                                                                                                                                                01701                           0000000000000000000000000350000300000                                                         
U0003503010580820160000002016VERSAMENTO IMPOSTE PER I.R.A.P.  MESE DI: LUGLIO 16                                                                                                                                                                                                       0000000000000275000001326VERS. IMPOSTE MESE: LUGLIO 16 PER I.R.A.P.                                                                                                                                                                                                                01701                           0000000000000000000000000350000300000                                                         
U0003510010560020160000002016STIPENDI RELATIVI AL MESE DI: LUGLIO 16                                                                                                                                                                                                                   0000000000014167000001069STIPENDI MESE DI: LUGLIO 16                                                                                                                                                                                                                               01103                           0000000000021630000000000351000000000                                                         
U0003510010580920160000002016STIPENDI RELATIVI AL MESE DI: LUGLIO 16                                                                                                                                                                                                                   0000000000026858000001069STIPENDI MESE DI: LUGLIO 16                                                                                                                                                                                                                               01103                           0000000000019830000000000351000000000                                                         
U0003510010580920160000002016STIPENDI RELATIVI AL MESE DI: LUGLIO 16                                                                                                                                                                                                                   0000000000023768000001069STIPENDI MESE DI: LUGLIO 16                                                                                                                                                                                                                               01103                           00000000000222u0000000000351000000000                                                         
U0003510010580920160000002016STIPENDI RELATIVI AL MESE DI: LUGLIO 16                                                                                                                                                                                                                   0000000000019384000001069STIPENDI MESE DI: LUGLIO 16                                                                                                                                                                                                                               01103                           0000000000013460000000000351000000000                                                         
U0003510010580920160000002016STIPENDI RELATIVI AL MESE DI: LUGLIO 16                                                                                                                                                                                                                   0000000000010891000001069STIPENDI MESE DI: LUGLIO 16                                                                                                                                                                                                                               01103                           0000000000020860000000000351000000000                                                         
U0003510010580920160000002016STIPENDI RELATIVI AL MESE DI: LUGLIO 16                                                                                                                                                                                                                   0000000000009516000001069STIPENDI MESE DI: LUGLIO 16                                                                                                                                                                                                                               01103                           0000000000019430000000000351000000000                                                         
U0003510010580920160000002016STIPENDI RELATIVI AL MESE DI: LUGLIO 16                                                                                                                                                                                                                   0000000000009250000001069STIPENDI MESE DI: LUGLIO 16                                                                                                                                                                                                                               00000                           0000000000002820000000000351000000000                                                         
U0003510010580920160000002016STIPENDI RELATIVI AL MESE DI: LUGLIO 16                                                                                                                                                                                                                   0000000000005654000001069STIPENDI MESE DI: LUGLIO 16                                                                                                                                                                                                                               01103                           0000000000012940000000000351000000000                                                         
U0003510010580920160000002016STIPENDI RELATIVI AL MESE DI: LUGLIO 16                                                                                                                                                                                                                   0000000000005600000001069STIPENDI MESE DI: LUGLIO 16                                                                                                                                                                                                                               01103                           0000000000011500000000000351000000000                                                         
U0003510010580920160000002016STIPENDI RELATIVI AL MESE DI: LUGLIO 16                                                                                                                                                                                                                   0000000000003800000001069STIPENDI MESE DI: LUGLIO 16                                                                                                                                                                                                                               01103                           0000000000005450000000000351000000000                                                         
U0003510010580920160000002016STIPENDI RELATIVI AL MESE DI: LUGLIO 16                                                                                                                                                                                                                   0000000000000762000001069STIPENDI MESE DI: LUGLIO 16                                                                                                                                                                                                                               01103                           0000000000000810000000000351000000000                                                         
U0003510010581120160000002016STIPENDI RELATIVI AL MESE DI: LUGLIO 16                                                                                                                                                                                                                   0000000000196803000001069STIPENDI MESE DI: LUGLIO 16                                                                                                                                                                                                                               01101                           0000000001143920000000000351000000000                                                         
U0003510010581320160000002016STIPENDI RELATIVI AL MESE DI: LUGLIO 16                                                                                                                                                                                                                   0000000000105462000001069STIPENDI MESE DI: LUGLIO 16                                                                                                                                                                                                                               01103                           00000000001262w0000000000351000000000                                                         
U0003510010581320160000002016STIPENDI RELATIVI AL MESE DI: LUGLIO 16                                                                                                                                                                                                                   0000000000028241000001069STIPENDI MESE DI: LUGLIO 16                                                                                                                                                                                                                               01103                           00000000000115p0000000000351000000000                                                         
U0003510010581420160000002016STIPENDI RELATIVI AL MESE DI: LUGLIO 16                                                                                                                                                                                                                   0000000000076923000001069STIPENDI MESE DI: LUGLIO 16                                                                                                                                                                                                                               01101                           0000000000180320000000000351000000000                                                         
U0003512010565020160000000000VERSAMENTO CONTRIBUTI O RITENUTE  MESE DI: LUGLIO 16                                                                                                                                                                                                      0000000000003372000000399VERS.CONTRIB. MESE: LUGLIO 16 A CARICO DELL`ENTE                                                                                                                                                                                                          01111         P201160707        0000000000000000000000000351000200000                                                         
U0003512010565020160000002016VERSAMENTO CONTRIBUTI O RITENUTE  MESE DI: LUGLIO 16                                                                                                                                                                                                      0000000000050130000000399VERS.CONTRIB. MESE: LUGLIO 16 A CARICO DELL`ENTE                                                                                                                                                                                                          01111         P201160707        0000000000000000000000000351000200000                                                         
U0003512010565020160000002016VERSAMENTO CONTRIBUTI O RITENUTE  MESE DI: LUGLIO 16                                                                                                                                                                                                      0000000000049041000000399VERS.CONTRIB. MESE: LUGLIO 16 A CARICO DELL`ENTE                                                                                                                                                                                                          01111         P201160707        0000000000000000000000000351000200000                                                         
U0003512010565020160000002016VERSAMENTO CONTRIBUTI O RITENUTE  MESE DI: LUGLIO 16                                                                                                                                                                                                      0000000000009990000000399VERS.CONTRIB. MESE: LUGLIO 16 A CARICO DELL`ENTE                                                                                                                                                                                                          01111         P201160707        0000000000000000000000000351000200000                                                         
U0003512010565020160000002016VERSAMENTO CONTRIBUTI O RITENUTE  MESE DI: LUGLIO 16                                                                                                                                                                                                      0000000000005657000000399VERS.CONTRIB. MESE: LUGLIO 16 A CARICO DELL`ENTE                                                                                                                                                                                                          01111         P201160707        0000000000000000000000000351000200000                                                         
U0003512010565020160000002016VERSAMENTO CONTRIBUTI O RITENUTE  MESE DI: LUGLIO 16                                                                                                                                                                                                      0000000000004614000000399VERS.CONTRIB. MESE: LUGLIO 16 A CARICO DELL`ENTE                                                                                                                                                                                                          01111         P201160707        0000000000000000000000000351000200000                                                         
U0003512010565020160000002016VERSAMENTO CONTRIBUTI O RITENUTE  MESE DI: LUGLIO 16                                                                                                                                                                                                      0000000000003453000000107VERS.CONTRIB. MESE: LUGLIO 16 A CARICO DELL`ENTE                                                                                                                                                                                                          01113         P607160707        0000000000000000000000000351000200000                                                         
U0003512010565020160000002016VERSAMENTO CONTRIBUTI O RITENUTE  MESE DI: LUGLIO 16                                                                                                                                                                                                      0000000000002773000000399VERS.CONTRIB. MESE: LUGLIO 16 A CARICO DELL`ENTE                                                                                                                                                                                                          01111         P201160707        0000000000000000000000000351000200000                                                         
U0003512010565020160000002016VERSAMENTO CONTRIBUTI O RITENUTE  MESE DI: LUGLIO 16                                                                                                                                                                                                      0000000000001346000000399VERS.CONTRIB. MESE: LUGLIO 16 A CARICO DELL`ENTE                                                                                                                                                                                                          01111         P201160707        0000000000000000000000000351000200000                                                         
U0003512010565020160000002016VERSAMENTO CONTRIBUTI O RITENUTE  MESE DI: LUGLIO 16                                                                                                                                                                                                      0000000000000904000000399VERS.CONTRIB. MESE: LUGLIO 16 A CARICO DELL`ENTE                                                                                                                                                                                                          01111         P201160707        0000000000000000000000000351000200000                                                         
U0003512010565020160000002016VERSAMENTO CONTRIBUTI O RITENUTE  MESE DI: LUGLIO 16                                                                                                                                                                                                      0000000000000172000000107VERS.CONTRIB. MESE: LUGLIO 16 A CARICO DELL`ENTE                                                                                                                                                                                                          01113         P607160707        0000000000000000000000000351000200000                                                         
U0003513010566020160000000000VERSAMENTO IMPOSTE PER I.R.A.P.  MESE DI: LUGLIO 16                                                                                                                                                                                                       0000000000001204000001326VERS. IMPOSTE MESE: LUGLIO 16 PER I.R.A.P.                                                                                                                                                                                                                01701                           0000000000000000000000000351000300000                                                         
U0003513010566020160000002016VERSAMENTO IMPOSTE PER I.R.A.P.  MESE DI: LUGLIO 16                                                                                                                                                                                                       0000000000016728000001326VERS. IMPOSTE MESE: LUGLIO 16 PER I.R.A.P.                                                                                                                                                                                                                01701                           0000000000000000000000000351000300000                                                         
U0003513010566020160000002016VERSAMENTO IMPOSTE PER I.R.A.P.  MESE DI: LUGLIO 16                                                                                                                                                                                                       0000000000016720000001326VERS. IMPOSTE MESE: LUGLIO 16 PER I.R.A.P.                                                                                                                                                                                                                01701                           0000000000000000000000000351000300000                                                         
U0003513010566020160000002016VERSAMENTO IMPOSTE PER I.R.A.P.  MESE DI: LUGLIO 16                                                                                                                                                                                                       0000000000003567000001326VERS. IMPOSTE MESE: LUGLIO 16 PER I.R.A.P.                                                                                                                                                                                                                01701                           0000000000000000000000000351000300000                                                         
U0003513010566020160000002016VERSAMENTO IMPOSTE PER I.R.A.P.  MESE DI: LUGLIO 16                                                                                                                                                                                                       0000000000001648000001326VERS. IMPOSTE MESE: LUGLIO 16 PER I.R.A.P.                                                                                                                                                                                                                01701                           0000000000000000000000000351000300000                                                         
U0003513010566020160000002016VERSAMENTO IMPOSTE PER I.R.A.P.  MESE DI: LUGLIO 16                                                                                                                                                                                                       0000000000001569000001326VERS. IMPOSTE MESE: LUGLIO 16 PER I.R.A.P.                                                                                                                                                                                                                01701                           0000000000000000000000000351000300000                                                         
U0003513010566020160000002016VERSAMENTO IMPOSTE PER I.R.A.P.  MESE DI: LUGLIO 16                                                                                                                                                                                                       0000000000000756000001326VERS. IMPOSTE MESE: LUGLIO 16 PER I.R.A.P.                                                                                                                                                                                                                01701                           0000000000000000000000000351000300000                                                         
U0003513010566020160000002016VERSAMENTO IMPOSTE PER I.R.A.P.  MESE DI: LUGLIO 16                                                                                                                                                                                                       0000000000000481000001326VERS. IMPOSTE MESE: LUGLIO 16 PER I.R.A.P.                                                                                                                                                                                                                01701                           0000000000000000000000000351000300000                                                         
U0003513010566020160000002016VERSAMENTO IMPOSTE PER I.R.A.P.  MESE DI: LUGLIO 16                                                                                                                                                                                                       0000000000000323000001326VERS. IMPOSTE MESE: LUGLIO 16 PER I.R.A.P.                                                                                                                                                                                                                01701                           0000000000000000000000000351000300000                                                         
U0007130110578020160000002016STIPENDI RELATIVI AL MESE DI: LUGLIO 16                                                                                                                                                                                                                   0000000000017103000001069STIPENDI MESE DI: LUGLIO 16                                                                                                                                                                                                                               01330                           0000000000000000000000000713000010000                                                         
U0008510010504120160000000000VERSAMENTO IMPOSTE PER I.R.A.P.  MESE DI: LUGLIO 16                                                                                                                                                                                                       0000000000139414000001326VERS. IMPOSTE MESE: LUGLIO 16 PER I.R.A.P.                                                                                                                                                                                                                01701                           0000000000000000000000000851000000000                                                         
U0009000110500920160000000000STIPENDI RELATIVI AL MESE DI: LUGLIO 16                                                                                                                                                                                                                   0000000000971839000001069STIPENDI MESE DI: LUGLIO 16                                                                                                                                                                                                                               01101                           0000000001827560000000000900000010000                                                         
U0009000110500920160000000000STIPENDI RELATIVI AL MESE DI: LUGLIO 16                                                                                                                                                                                                                   0000000000023834000001069STIPENDI MESE DI: LUGLIO 16                                                                                                                                                                                                                               01101                           0000000000044330000000000900000010000                                                         
U0009000110500920160000000000STIPENDI RELATIVI AL MESE DI: LUGLIO 16                                                                                                                                                                                                                   0000000000016795000001069STIPENDI MESE DI: LUGLIO 16                                                                                                                                                                                                                               01101                           0000000000027920000000000900000010000                                                         
U0009002010512320160000000000VERSAMENTO CONTRIBUTI O RITENUTE  MESE DI: LUGLIO 16                                                                                                                                                                                                      0000000000244041000000399VERS.CONTRIB. MESE: LUGLIO 16 A CARICO DELL`ENTE                                                                                                                                                                                                          01111         P201160707        0000000000000000000000000900000200000                                                         
U0009002010512320160000000000VERSAMENTO CONTRIBUTI O RITENUTE  MESE DI: LUGLIO 16                                                                                                                                                                                                      0000000000031515000000107VERS.CONTRIB. MESE: LUGLIO 16 A CARICO DELL`ENTE                                                                                                                                                                                                          01113         P608160707        0000000000000000000000000900000200000                                                         
U0009002010512320160000000000VERSAMENTO CONTRIBUTI O RITENUTE  MESE DI: LUGLIO 16                                                                                                                                                                                                      0000000000010173000000107VERS.CONTRIB. MESE: LUGLIO 16 A CARICO DELL`ENTE                                                                                                                                                                                                          01113         P607160707        0000000000000000000000000900000200000                                                         
U0009002510540120160000000000STIPENDI RELATIVI AL MESE DI: LUGLIO 16                                                                                                                                                                                                                   0000000000002676000001069STIPENDI MESE DI: LUGLIO 16                                                                                                                                                                                                                               01101                           0000000000000000000000000900000250000                                                         
U0009600010504220160000000000VERSAMENTO IMPOSTE PER I.R.A.P.  MESE DI: LUGLIO 16                                                                                                                                                                                                       0000000000071887000001326VERS. IMPOSTE MESE: LUGLIO 16 PER I.R.A.P.                                                                                                                                                                                                                01701                           0000000000000000000000000960000000000                                                         
U0010000110509020160000000000STIPENDI RELATIVI AL MESE DI: LUGLIO 16                                                                                                                                                                                                                   0000000000297255000001069STIPENDI MESE DI: LUGLIO 16                                                                                                                                                                                                                               01101                           0000000000405980000000001000000010000                                                         
U0010000110509020160000000000STIPENDI RELATIVI AL MESE DI: LUGLIO 16                                                                                                                                                                                                                   0000000000018411000001069STIPENDI MESE DI: LUGLIO 16                                                                                                                                                                                                                               01101                           0000000000072810000000001000000010000                                                         
U0010000110509020160000000000STIPENDI RELATIVI AL MESE DI: LUGLIO 16                                                                                                                                                                                                                   0000000000007599000001069STIPENDI MESE DI: LUGLIO 16                                                                                                                                                                                                                               01101                           0000000000010150000000001000000010000                                                         
U0010002010511520160000000000VERSAMENTO CONTRIBUTI O RITENUTE  MESE DI: LUGLIO 16                                                                                                                                                                                                      0000000000077660000000399VERS.CONTRIB. MESE: LUGLIO 16 A CARICO DELL`ENTE                                                                                                                                                                                                          01111         P201160707        0000000000000000000000001000000200000                                                         
U0010002010511520160000000000VERSAMENTO CONTRIBUTI O RITENUTE  MESE DI: LUGLIO 16                                                                                                                                                                                                      0000000000007413000000107VERS.CONTRIB. MESE: LUGLIO 16 A CARICO DELL`ENTE                                                                                                                                                                                                          01113         P608160707        0000000000000000000000001000000200000                                                         
U0010002010511520160000000000VERSAMENTO CONTRIBUTI O RITENUTE  MESE DI: LUGLIO 16                                                                                                                                                                                                      0000000000004781000000107VERS.CONTRIB. MESE: LUGLIO 16 A CARICO DELL`ENTE                                                                                                                                                                                                          01113         P607160707        0000000000000000000000001000000200000                                                         
U0011650010504320160000000000VERSAMENTO IMPOSTE PER I.R.A.P.  MESE DI: LUGLIO 16                                                                                                                                                                                                       0000000000027736000001326VERS. IMPOSTE MESE: LUGLIO 16 PER I.R.A.P.                                                                                                                                                                                                                01701                           0000000000000000000000001165000000000                                                         
U0012000110509120160000000000STIPENDI RELATIVI AL MESE DI: LUGLIO 16                                                                                                                                                                                                                   0000000000732234000001069STIPENDI MESE DI: LUGLIO 16                                                                                                                                                                                                                               01101                           00000000003861r0000000001200000010000                                                         
U0012000110509120160000000000STIPENDI RELATIVI AL MESE DI: LUGLIO 16                                                                                                                                                                                                                   0000000000040896000001069STIPENDI MESE DI: LUGLIO 16                                                                                                                                                                                                                               01101                           00000000000456x0000000001200000010000                                                         
U0012000110509120160000000000STIPENDI RELATIVI AL MESE DI: LUGLIO 16                                                                                                                                                                                                                   0000000000017756000001069STIPENDI MESE DI: LUGLIO 16                                                                                                                                                                                                                               01101                           00000000000105w0000000001200000010000                                                         
U0012002010511620160000000000VERSAMENTO CONTRIBUTI O RITENUTE  MESE DI: LUGLIO 16                                                                                                                                                                                                      0000000000189653000000399VERS.CONTRIB. MESE: LUGLIO 16 A CARICO DELL`ENTE                                                                                                                                                                                                          01111         P201160707        0000000000000000000000001200000200000                                                         
U0012002010511620160000000000VERSAMENTO CONTRIBUTI O RITENUTE  MESE DI: LUGLIO 16                                                                                                                                                                                                      0000000000014599000000107VERS.CONTRIB. MESE: LUGLIO 16 A CARICO DELL`ENTE                                                                                                                                                                                                          01113         P608160707        0000000000000000000000001200000200000                                                         
U0012002010511620160000000000VERSAMENTO CONTRIBUTI O RITENUTE  MESE DI: LUGLIO 16                                                                                                                                                                                                      0000000000013770000000107VERS.CONTRIB. MESE: LUGLIO 16 A CARICO DELL`ENTE                                                                                                                                                                                                          01113         P607160707        0000000000000000000000001200000200000                                                         
U0012002510540220160000000000STIPENDI RELATIVI AL MESE DI: LUGLIO 16                                                                                                                                                                                                                   0000000000053153000001069STIPENDI MESE DI: LUGLIO 16                                                                                                                                                                                                                               01101                           0000000000000000000000001200000250000                                                         
U0012300010504420160000000000VERSAMENTO IMPOSTE PER I.R.A.P.  MESE DI: LUGLIO 16                                                                                                                                                                                                       0000000000067734000001326VERS. IMPOSTE MESE: LUGLIO 16 PER I.R.A.P.                                                                                                                                                                                                                01701                           0000000000000000000000001230000000000                                                         
U0012500110509220160000000000STIPENDI RELATIVI AL MESE DI: LUGLIO 16                                                                                                                                                                                                                   0000000000837817000001069STIPENDI MESE DI: LUGLIO 16                                                                                                                                                                                                                               01101                           00000000003849s0000000001250000010000                                                         
U0012500110509220160000000000STIPENDI RELATIVI AL MESE DI: LUGLIO 16                                                                                                                                                                                                                   0000000000066516000001069STIPENDI MESE DI: LUGLIO 16                                                                                                                                                                                                                               01101                           00000000000229u0000000001250000010000                                                         
U0012500110509220160000000000STIPENDI RELATIVI AL MESE DI: LUGLIO 16                                                                                                                                                                                                                   0000000000020916000001069STIPENDI MESE DI: LUGLIO 16                                                                                                                                                                                                                               01101                           00000000000110p0000000001250000010000                                                         
U0012500110509220160000100000STIPENDI RELATIVI AL MESE DI: LUGLIO 16                                                                                                                                                                                                                   0000000000326347000001069STIPENDI MESE DI: LUGLIO 16                                                                                                                                                                                                                               01101                           0000000000314550000000001250000010000                                                         
U0012500110509220160000200000STIPENDI RELATIVI AL MESE DI: LUGLIO 16                                                                                                                                                                                                                   0000000000126166000001069STIPENDI MESE DI: LUGLIO 16                                                                                                                                                                                                                               01101                           0000000000121600000000001250000010000                                                         
U0012502010512420160000000000VERSAMENTO CONTRIBUTI O RITENUTE  MESE DI: LUGLIO 16                                                                                                                                                                                                      0000000000221900000000399VERS.CONTRIB. MESE: LUGLIO 16 A CARICO DELL`ENTE                                                                                                                                                                                                          01111         P201160707        0000000000000000000000001250000200000                                                         
U0012502010512420160000000000VERSAMENTO CONTRIBUTI O RITENUTE  MESE DI: LUGLIO 16                                                                                                                                                                                                      0000000000109896000000399VERS.CONTRIB. MESE: LUGLIO 16 A CARICO DELL`ENTE                                                                                                                                                                                                          01111         P201160707        0000000000000000000000001250000200000                                                         
U0012502010512420160000000000VERSAMENTO CONTRIBUTI O RITENUTE  MESE DI: LUGLIO 16                                                                                                                                                                                                      0000000000022533000000107VERS.CONTRIB. MESE: LUGLIO 16 A CARICO DELL`ENTE                                                                                                                                                                                                          01113         P608160707        0000000000000000000000001250000200000                                                         
U0012502010512420160000000000VERSAMENTO CONTRIBUTI O RITENUTE  MESE DI: LUGLIO 16                                                                                                                                                                                                      0000000000017327000000107VERS.CONTRIB. MESE: LUGLIO 16 A CARICO DELL`ENTE                                                                                                                                                                                                          01113         P608160707        0000000000000000000000001250000200000                                                         
U0012502010512420160000000000VERSAMENTO CONTRIBUTI O RITENUTE  MESE DI: LUGLIO 16                                                                                                                                                                                                      0000000000015960000000107VERS.CONTRIB. MESE: LUGLIO 16 A CARICO DELL`ENTE                                                                                                                                                                                                          01113         P607160707        0000000000000000000000001250000200000                                                         
U0015050010504520160000000000VERSAMENTO IMPOSTE PER I.R.A.P.  MESE DI: LUGLIO 16                                                                                                                                                                                                       0000000000079251000001326VERS. IMPOSTE MESE: LUGLIO 16 PER I.R.A.P.                                                                                                                                                                                                                01701                           0000000000000000000000001505000000000                                                         
U0015050010504520160000000000VERSAMENTO IMPOSTE PER I.R.A.P.  MESE DI: LUGLIO 16                                                                                                                                                                                                       0000000000039249000001326VERS. IMPOSTE MESE: LUGLIO 16 PER I.R.A.P.                                                                                                                                                                                                                01701                           0000000000000000000000001505000000000                                                         
U0015500110509320160000000000STIPENDI RELATIVI AL MESE DI: LUGLIO 16                                                                                                                                                                                                                   0000000000950821000001069STIPENDI MESE DI: LUGLIO 16                                                                                                                                                                                                                               01101                           0000000001500720000000001550000010000                                                         
U0015500110509320160000000000STIPENDI RELATIVI AL MESE DI: LUGLIO 16                                                                                                                                                                                                                   0000000000037414000001069STIPENDI MESE DI: LUGLIO 16                                                                                                                                                                                                                               01101                           0000000000096190000000001550000010000                                                         
U0015500110509320160000000000STIPENDI RELATIVI AL MESE DI: LUGLIO 16                                                                                                                                                                                                                   0000000000021926000001069STIPENDI MESE DI: LUGLIO 16                                                                                                                                                                                                                               01101                           0000000000033880000000001550000010000                                                         
U0015502010511720160000000000VERSAMENTO CONTRIBUTI O RITENUTE  MESE DI: LUGLIO 16                                                                                                                                                                                                      0000000000244559000000399VERS.CONTRIB. MESE: LUGLIO 16 A CARICO DELL`ENTE                                                                                                                                                                                                          01111         P201160707        0000000000000000000000001550000200000                                                         
U0015502010511720160000000000VERSAMENTO CONTRIBUTI O RITENUTE  MESE DI: LUGLIO 16                                                                                                                                                                                                      0000000000023169000000107VERS.CONTRIB. MESE: LUGLIO 16 A CARICO DELL`ENTE                                                                                                                                                                                                          01113         P608160707        0000000000000000000000001550000200000                                                         
U0015502010511720160000000000VERSAMENTO CONTRIBUTI O RITENUTE  MESE DI: LUGLIO 16                                                                                                                                                                                                      0000000000014996000000107VERS.CONTRIB. MESE: LUGLIO 16 A CARICO DELL`ENTE                                                                                                                                                                                                          01113         P607160707        0000000000000000000000001550000200000                                                         
U0015502510540320160000000000STIPENDI RELATIVI AL MESE DI: LUGLIO 16                                                                                                                                                                                                                   0000000000032650000001069STIPENDI MESE DI: LUGLIO 16                                                                                                                                                                                                                               01101                           0000000000000000000000001550000250000                                                         
U0016520010504620160000000000VERSAMENTO IMPOSTE PER I.R.A.P.  MESE DI: LUGLIO 16                                                                                                                                                                                                       0000000000087345000001326VERS. IMPOSTE MESE: LUGLIO 16 PER I.R.A.P.                                                                                                                                                                                                                01701                           0000000000000000000000001652000000000                                                         
U0016800010522720160000000000STIPENDI RELATIVI AL MESE DI: LUGLIO 16                                                                                                                                                                                                                   0000000000067507000001069STIPENDI MESE DI: LUGLIO 16                                                                                                                                                                                                                               01101                           00000000000014x0000000001680000000000                                                         
U0016800010522720160000000000STIPENDI RELATIVI AL MESE DI: LUGLIO 16                                                                                                                                                                                                                   0000000000002374000001069STIPENDI MESE DI: LUGLIO 16                                                                                                                                                                                                                               01101                           00000000000000t0000000001680000000000                                                         
U0016800010522720160000000000STIPENDI RELATIVI AL MESE DI: LUGLIO 16                                                                                                                                                                                                                   0000000000001466000001069STIPENDI MESE DI: LUGLIO 16                                                                                                                                                                                                                               01101                           00000000000000u0000000001680000000000                                                         
U0016810010577220160000002016VERSAMENTO IMPOSTE PER I.R.A.P.  MESE DI: LUGLIO 16                                                                                                                                                                                                       0000000000014273000001326VERS. IMPOSTE MESE: LUGLIO 16 PER I.R.A.P.                                                                                                                                                                                                                01701                           0000000000000000000000001681000000000                                                         
U0016810110577020160000002016STIPENDI RELATIVI AL MESE DI: LUGLIO 16                                                                                                                                                                                                                   0000000000160501000001069STIPENDI MESE DI: LUGLIO 16                                                                                                                                                                                                                               01101                           0000000000385930000000001681000010000                                                         
U0016810110577020160000002016STIPENDI RELATIVI AL MESE DI: LUGLIO 16                                                                                                                                                                                                                   0000000000004146000001069STIPENDI MESE DI: LUGLIO 16                                                                                                                                                                                                                               01101                           0000000000009970000000001681000010000                                                         
U0016812010577120160000002016VERSAMENTO CONTRIBUTI O RITENUTE  MESE DI: LUGLIO 16                                                                                                                                                                                                      0000000000039964000000399VERS.CONTRIB. MESE: LUGLIO 16 A CARICO DELL`ENTE                                                                                                                                                                                                          01111         P201160707        0000000000000000000000001681000200000                                                         
U0016812010577120160000002016VERSAMENTO CONTRIBUTI O RITENUTE  MESE DI: LUGLIO 16                                                                                                                                                                                                      0000000000007971000000107VERS.CONTRIB. MESE: LUGLIO 16 A CARICO DELL`ENTE                                                                                                                                                                                                          01113         P608160707        0000000000000000000000001681000200000                                                         
U0016850010522820160000000000VERSAMENTO CONTRIBUTI O RITENUTE  MESE DI: LUGLIO 16                                                                                                                                                                                                      0000000000017319000000399VERS.CONTRIB. MESE: LUGLIO 16 A CARICO DELL`ENTE                                                                                                                                                                                                          01111         P201160707        0000000000000000000000001685000000000                                                         
U0016850010522820160000000000VERSAMENTO CONTRIBUTI O RITENUTE  MESE DI: LUGLIO 16                                                                                                                                                                                                      0000000000003472000000107VERS.CONTRIB. MESE: LUGLIO 16 A CARICO DELL`ENTE                                                                                                                                                                                                          01113         P608160707        0000000000000000000000001685000000000                                                         
U0017510010522920160000000000VERSAMENTO IMPOSTE PER I.R.A.P.  MESE DI: LUGLIO 16                                                                                                                                                                                                       0000000000006185000001326VERS. IMPOSTE MESE: LUGLIO 16 PER I.R.A.P.                                                                                                                                                                                                                01701                           0000000000000000000000001751000000000                                                         
U0018500110509420160000000000STIPENDI RELATIVI AL MESE DI: LUGLIO 16                                                                                                                                                                                                                   0000000001241949000001069STIPENDI MESE DI: LUGLIO 16                                                                                                                                                                                                                               01101                           00000000013934w0000000001850000010000                                                         
