A0000314052016000Ordinaria                00                                                                                                                                                                                                                                                                                                                                                                                                                                                                                                                                                                                                                                                            
E0006760010000200000002002009RITENUTE SU EMOLUMENTI MESE DI: MAGGIO 16                                                                                                                                                                                                                 0000000000437794000000115RIT.ACC.IRPEF MESE: MAGGIO 16                                                                                                                                                                                                                             06201                           000000000000000000000000067600000                                                             
E0080000010001120160000000000RITENUTE SU EMOLUMENTI MESE DI: MAGGIO 16                                                                                                                                                                                                                 0000000001719536000100002RITEN.CONTRIB.MESE: MAGGIO 16 A CARICO DEL PERSONALE DIPENDEN.                                                                                                                                                                                            06101                           000000000000000000000000800000000                                                             
E0080000010001120160000002016RITENUTE SU EMOLUMENTI MESE DI: MAGGIO 16                                                                                                                                                                                                                 0000000000010907000100002RITEN.CONTRIB.MESE: MAGGIO 16 A CARICO DEL PERSONALE DIPENDEN.                                                                                                                                                                                            06101                           000000000000000000000000800000000                                                             
E0081000110001720160000000000RITENUTE SU EMOLUMENTI MESE DI: MAGGIO 16                                                                                                                                                                                                                 0000000002365631000100002RIT.ACC.IRPEF MESE: MAGGIO 16                                                                                                                                                                                                                             06201                           000000000000000000000000810000001                                                             
E0081000110001720160000002016RITENUTE SU EMOLUMENTI MESE DI: MAGGIO 16                                                                                                                                                                                                                 0000000000365797000100002RITENUTE DEL MESE: MAGGIO 16 PER ADDIZIONALE REGIONALE                                                                                                                                                                                                    06201                           000000000000000000000000810000001                                                             
E0083000910001820160000102016RITENUTE SU EMOLUMENTI MESE DI: MAGGIO 16                                                                                                                                                                                                                 0000000000096141000100002RITENUTE QUOTE MESE MAGGIO 16 PER CONTO TERZI.                                                                                                                                                                                                            06301                           000000000000000000000000830000009                                                             
E0083000910001820160000102016RITENUTE SU EMOLUMENTI MESE DI: MAGGIO 16                                                                                                                                                                                                                 0000000000048893000100002RITENUTE QUOTE MESE MAGGIO 16 PER CONTO TERZI.                                                                                                                                                                                                            06301                           000000000000000000000000830000009                                                             
E0083000910001820160000102016RITENUTE SU EMOLUMENTI MESE DI: MAGGIO 16                                                                                                                                                                                                                 0000000000033430000100002RITENUTE QUOTE MESE MAGGIO 16 PER CONTO TERZI.                                                                                                                                                                                                            06501                           000000000000000000000000830000009                                                             
E0083001010511120160000100000RITENUTE SU EMOLUMENTI MESE DI: MAGGIO 16                                                                                                                                                                                                                 0000000000042621000100002RITENUTE QUOTE MESE MAGGIO 16 PER CONTO TERZI.                                                                                                                                                                                                            06301                           000000000000000000000000830000010                                                             
U0001000110511120160000000000STIPENDI RELATIVI AL MESE DI: MAGGIO 16                                                                                                                                                                                                                   0000000000833037000001112STIPENDI MESE DI: MAGGIO 16                                                                                                                                                                                                                               01325                           000000000273926000000000010000001                                                             
U0002610010521520160000002016VERSAMENTO IMPOSTE PER I.R.A.P.  MESE DI: MAGGIO 16                                                                                                                                                                                                       0000000000070810000001326VERS. IMPOSTE MESE: MAGGIO 16 PER I.R.A.P.                                                                                                                                                                                                                01701                           000000000000000000000000026100000                                                             
U0003000110500820160000000000STIPENDI RELATIVI AL MESE DI: MAGGIO 16                                                                                                                                                                                                                   0000000001635233000001069STIPENDI MESE DI: MAGGIO 16                                                                                                                                                                                                                               01101                           000000000507858000000000030000001                                                             
U0003000110500820160000000000STIPENDI RELATIVI AL MESE DI: MAGGIO 16                                                                                                                                                                                                                   0000000000050670000001069STIPENDI MESE DI: MAGGIO 16                                                                                                                                                                                                                               01101                           000000000015245000000000030000001                                                             
U0003000110500820160000000000STIPENDI RELATIVI AL MESE DI: MAGGIO 16                                                                                                                                                                                                                   0000000000028682000001069STIPENDI MESE DI: MAGGIO 16                                                                                                                                                                                                                               01101                           000000000007801000000000030000001                                                             
U0003002010512220160000000000VERSAMENTO CONTRIBUTI O RITENUTE  MESE DI: MAGGIO 16                                                                                                                                                                                                      0000000000410033000000399VERS.CONTRIB. MESE: MAGGIO 16 A CARICO DELL`ENTE                                                                                                                                                                                                          01111         P201160505        000000000000000000000000030000020                                                             
U0003002010512220160000000000VERSAMENTO CONTRIBUTI O RITENUTE  MESE DI: MAGGIO 16                                                                                                                                                                                                      0000000000036838000000107VERS.CONTRIB. MESE: MAGGIO 16 A CARICO DELL`ENTE                                                                                                                                                                                                          01113         P607160505        000000000000000000000000030000020                                                             
U0003002010512220160000000000VERSAMENTO CONTRIBUTI O RITENUTE  MESE DI: MAGGIO 16                                                                                                                                                                                                      0000000000020107000000107VERS.CONTRIB. MESE: MAGGIO 16 A CARICO DELL`ENTE                                                                                                                                                                                                          01113         P608160505        000000000000000000000000030000020                                                             
U0003002510540020160000000000STIPENDI RELATIVI AL MESE DI: MAGGIO 16                                                                                                                                                                                                                   0000000000016833000001069STIPENDI MESE DI: MAGGIO 16                                                                                                                                                                                                                               01101                           000000000000000000000000030000025                                                             
U0003500010580220160000002016STIPENDI RELATIVI AL MESE DI: MAGGIO 16                                                                                                                                                                                                                   0000000000016224000000001STIPENDI MESE DI: MAGGIO 16                                                                                                                                                                                                                               01102                           000000000003194000000000035000000                                                             
U0003500010580220160000002016STIPENDI RELATIVI AL MESE DI: MAGGIO 16                                                                                                                                                                                                                   0000000000013806000000001STIPENDI MESE DI: MAGGIO 16                                                                                                                                                                                                                               01102                           000000000001824000000000035000000                                                             
U0003500010580220160000002016STIPENDI RELATIVI AL MESE DI: MAGGIO 16                                                                                                                                                                                                                   0000000000005830000000001STIPENDI MESE DI: MAGGIO 16                                                                                                                                                                                                                               01102                           000000000001414000000000035000000                                                             
U0003500010580420160000002016STIPENDI RELATIVI AL MESE DI: MAGGIO 16                                                                                                                                                                                                                   0000000000011551000000001STIPENDI MESE DI: MAGGIO 16                                                                                                                                                                                                                               01102                           000000000002994000000000035000000                                                             
U0003500010580420160000002016STIPENDI RELATIVI AL MESE DI: MAGGIO 16                                                                                                                                                                                                                   0000000000008909000000001STIPENDI MESE DI: MAGGIO 16                                                                                                                                                                                                                               01102                           000000000002524000000000035000000                                                             
U0003500010580520160000002016STIPENDI RELATIVI AL MESE DI: MAGGIO 16                                                                                                                                                                                                                   0000000000024784000000001STIPENDI MESE DI: MAGGIO 16                                                                                                                                                                                                                               01102                           000000000008193000000000035000000                                                             
U0003500010580620160000002016STIPENDI RELATIVI AL MESE DI: MAGGIO 16                                                                                                                                                                                                                   0000000000070213000000001STIPENDI MESE DI: MAGGIO 16                                                                                                                                                                                                                               01102                           000000000023416000000000035000000                                                             
U0003502010580720160000002016VERSAMENTO CONTRIBUTI O RITENUTE  MESE DI: MAGGIO 16                                                                                                                                                                                                      0000000000016711000000399VERS.CONTRIB. MESE: MAGGIO 16 A CARICO DELL`ENTE                                                                                                                                                                                                          01111         P201160505        000000000000000000000000035000020                                                             
U0003502010580720160000002016VERSAMENTO CONTRIBUTI O RITENUTE  MESE DI: MAGGIO 16                                                                                                                                                                                                      0000000000005899000000399VERS.CONTRIB. MESE: MAGGIO 16 A CARICO DELL`ENTE                                                                                                                                                                                                          01111         P201160505        000000000000000000000000035000020                                                             
U0003502010580720160000002016VERSAMENTO CONTRIBUTI O RITENUTE  MESE DI: MAGGIO 16                                                                                                                                                                                                      0000000000003861000000399VERS.CONTRIB. MESE: MAGGIO 16 A CARICO DELL`ENTE                                                                                                                                                                                                          01111         P201160505        000000000000000000000000035000020                                                             
U0003502010580720160000002016VERSAMENTO CONTRIBUTI O RITENUTE  MESE DI: MAGGIO 16                                                                                                                                                                                                      0000000000003286000000399VERS.CONTRIB. MESE: MAGGIO 16 A CARICO DELL`ENTE                                                                                                                                                                                                          01111         P201160505        000000000000000000000000035000020                                                             
U0003502010580720160000002016VERSAMENTO CONTRIBUTI O RITENUTE  MESE DI: MAGGIO 16                                                                                                                                                                                                      0000000000002749000000399VERS.CONTRIB. MESE: MAGGIO 16 A CARICO DELL`ENTE                                                                                                                                                                                                          01111         P201160505        000000000000000000000000035000020                                                             
U0003502010580720160000002016VERSAMENTO CONTRIBUTI O RITENUTE  MESE DI: MAGGIO 16                                                                                                                                                                                                      0000000000002120000000399VERS.CONTRIB. MESE: MAGGIO 16 A CARICO DELL`ENTE                                                                                                                                                                                                          01111         P201160505        000000000000000000000000035000020                                                             
U0003502010580720160000002016VERSAMENTO CONTRIBUTI O RITENUTE  MESE DI: MAGGIO 16                                                                                                                                                                                                      0000000000001388000000399VERS.CONTRIB. MESE: MAGGIO 16 A CARICO DELL`ENTE                                                                                                                                                                                                          01111         P201160505        000000000000000000000000035000020                                                             
U0003503010580820160000002016VERSAMENTO IMPOSTE PER I.R.A.P.  MESE DI: MAGGIO 16                                                                                                                                                                                                       0000000000005968000001326VERS. IMPOSTE MESE: MAGGIO 16 PER I.R.A.P.                                                                                                                                                                                                                01701                           000000000000000000000000035000030                                                             
U0003503010580820160000002016VERSAMENTO IMPOSTE PER I.R.A.P.  MESE DI: MAGGIO 16                                                                                                                                                                                                       0000000000002106000001326VERS. IMPOSTE MESE: MAGGIO 16 PER I.R.A.P.                                                                                                                                                                                                                01701                           000000000000000000000000035000030                                                             
U0003503010580820160000002016VERSAMENTO IMPOSTE PER I.R.A.P.  MESE DI: MAGGIO 16                                                                                                                                                                                                       0000000000001379000001326VERS. IMPOSTE MESE: MAGGIO 16 PER I.R.A.P.                                                                                                                                                                                                                01701                           000000000000000000000000035000030                                                             
U0003503010580820160000002016VERSAMENTO IMPOSTE PER I.R.A.P.  MESE DI: MAGGIO 16                                                                                                                                                                                                       0000000000001174000001326VERS. IMPOSTE MESE: MAGGIO 16 PER I.R.A.P.                                                                                                                                                                                                                01701                           000000000000000000000000035000030                                                             
U0003503010580820160000002016VERSAMENTO IMPOSTE PER I.R.A.P.  MESE DI: MAGGIO 16                                                                                                                                                                                                       0000000000000982000001326VERS. IMPOSTE MESE: MAGGIO 16 PER I.R.A.P.                                                                                                                                                                                                                01701                           000000000000000000000000035000030                                                             
U0003503010580820160000002016VERSAMENTO IMPOSTE PER I.R.A.P.  MESE DI: MAGGIO 16                                                                                                                                                                                                       0000000000000757000001326VERS. IMPOSTE MESE: MAGGIO 16 PER I.R.A.P.                                                                                                                                                                                                                01701                           000000000000000000000000035000030                                                             
U0003503010580820160000002016VERSAMENTO IMPOSTE PER I.R.A.P.  MESE DI: MAGGIO 16                                                                                                                                                                                                       0000000000000496000001326VERS. IMPOSTE MESE: MAGGIO 16 PER I.R.A.P.                                                                                                                                                                                                                01701                           000000000000000000000000035000030                                                             
U0003510010560020160000002016STIPENDI RELATIVI AL MESE DI: MAGGIO 16                                                                                                                                                                                                                   0000000000014833000001069STIPENDI MESE DI: MAGGIO 16                                                                                                                                                                                                                               01103                           000000000004053000000000035100000                                                             
U0003510010580920160000002016STIPENDI RELATIVI AL MESE DI: MAGGIO 16                                                                                                                                                                                                                   0000000000020660000001069STIPENDI MESE DI: MAGGIO 16                                                                                                                                                                                                                               01103                           000000000005710000000000035100000                                                             
U0003510010580920160000002016STIPENDI RELATIVI AL MESE DI: MAGGIO 16                                                                                                                                                                                                                   0000000000011654000001069STIPENDI MESE DI: MAGGIO 16                                                                                                                                                                                                                               01103                           000000000002512000000000035100000                                                             
U0003510010580920160000002016STIPENDI RELATIVI AL MESE DI: MAGGIO 16                                                                                                                                                                                                                   0000000000009100000001069STIPENDI MESE DI: MAGGIO 16                                                                                                                                                                                                                               01103                           000000000002536000000000035100000                                                             
U0003510010580920160000002016STIPENDI RELATIVI AL MESE DI: MAGGIO 16                                                                                                                                                                                                                   0000000000007033000001069STIPENDI MESE DI: MAGGIO 16                                                                                                                                                                                                                               01103                           000000000001198000000000035100000                                                             
U0003510010580920160000002016STIPENDI RELATIVI AL MESE DI: MAGGIO 16                                                                                                                                                                                                                   0000000000006115000001069STIPENDI MESE DI: MAGGIO 16                                                                                                                                                                                                                               01103                           000000000001124000000000035100000                                                             
U0003510010580920160000002016STIPENDI RELATIVI AL MESE DI: MAGGIO 16                                                                                                                                                                                                                   0000000000005512000001069STIPENDI MESE DI: MAGGIO 16                                                                                                                                                                                                                               01103                           000000000001505000000000035100000                                                             
U0003510010580920160000002016STIPENDI RELATIVI AL MESE DI: MAGGIO 16                                                                                                                                                                                                                   0000000000004750000001069STIPENDI MESE DI: MAGGIO 16                                                                                                                                                                                                                               00000                           000000000000273000000000035100000                                                             
U0003510010580920160000002016STIPENDI RELATIVI AL MESE DI: MAGGIO 16                                                                                                                                                                                                                   0000000000002654000001069STIPENDI MESE DI: MAGGIO 16                                                                                                                                                                                                                               01103                           000000000000680000000000035100000                                                             
U0003510010580920160000002016STIPENDI RELATIVI AL MESE DI: MAGGIO 16                                                                                                                                                                                                                   0000000000002538000001069STIPENDI MESE DI: MAGGIO 16                                                                                                                                                                                                                               01103                           000000000000574000000000035100000                                                             
U0003510010580920160000002016STIPENDI RELATIVI AL MESE DI: MAGGIO 16                                                                                                                                                                                                                   0000000000001846000001069STIPENDI MESE DI: MAGGIO 16                                                                                                                                                                                                                               01103                           000000000000523000000000035100000                                                             
U0003510010580920160000002016STIPENDI RELATIVI AL MESE DI: MAGGIO 16                                                                                                                                                                                                                   0000000000001700000001069STIPENDI MESE DI: MAGGIO 16                                                                                                                                                                                                                               01103                           000000000000352000000000035100000                                                             
U0003510010581120160000002016STIPENDI RELATIVI AL MESE DI: MAGGIO 16                                                                                                                                                                                                                   0000000000196803000001069STIPENDI MESE DI: MAGGIO 16                                                                                                                                                                                                                               01101                           000000000074465000000000035100000                                                             
U0003510010581320160000002016STIPENDI RELATIVI AL MESE DI: MAGGIO 16                                                                                                                                                                                                                   0000000000082131000001069STIPENDI MESE DI: MAGGIO 16                                                                                                                                                                                                                               01103                           000000000022563000000000035100000                                                             
U0003510010581320160000002016STIPENDI RELATIVI AL MESE DI: MAGGIO 16                                                                                                                                                                                                                   0000000000029585000001069STIPENDI MESE DI: MAGGIO 16                                                                                                                                                                                                                               01103                           000000000009366000000000035100000                                                             
U0003510010581320160000002016STIPENDI RELATIVI AL MESE DI: MAGGIO 16                                                                                                                                                                                                                   0000000000001155000001069STIPENDI MESE DI: MAGGIO 16                                                                                                                                                                                                                               01103                           000000000000475000000000035100000                                                             
U0003510010581420160000002016STIPENDI RELATIVI AL MESE DI: MAGGIO 16                                                                                                                                                                                                                   0000000000076923000001069STIPENDI MESE DI: MAGGIO 16                                                                                                                                                                                                                               01101                           000000000028872000000000035100000                                                             
U0003512010565020160000000000VERSAMENTO CONTRIBUTI O RITENUTE  MESE DI: MAGGIO 16                                                                                                                                                                                                      0000000000003530000000399VERS.CONTRIB. MESE: MAGGIO 16 A CARICO DELL`ENTE                                                                                                                                                                                                          01111         P201160505        000000000000000000000000035100020                                                             
U0003512010565020160000002016VERSAMENTO CONTRIBUTI O RITENUTE  MESE DI: MAGGIO 16                                                                                                                                                                                                      0000000000047970000000399VERS.CONTRIB. MESE: MAGGIO 16 A CARICO DELL`ENTE                                                                                                                                                                                                          01111         P201160505        000000000000000000000000035100020                                                             
U0003512010565020160000002016VERSAMENTO CONTRIBUTI O RITENUTE  MESE DI: MAGGIO 16                                                                                                                                                                                                      0000000000045172000000399VERS.CONTRIB. MESE: MAGGIO 16 A CARICO DELL`ENTE                                                                                                                                                                                                          01111         P201160505        000000000000000000000000035100020                                                             
U0003512010565020160000002016VERSAMENTO CONTRIBUTI O RITENUTE  MESE DI: MAGGIO 16                                                                                                                                                                                                      0000000000008395000000399VERS.CONTRIB. MESE: MAGGIO 16 A CARICO DELL`ENTE                                                                                                                                                                                                          01111         P201160505        000000000000000000000000035100020                                                             
U0003512010565020160000002016VERSAMENTO CONTRIBUTI O RITENUTE  MESE DI: MAGGIO 16                                                                                                                                                                                                      0000000000003453000000107VERS.CONTRIB. MESE: MAGGIO 16 A CARICO DELL`ENTE                                                                                                                                                                                                          01113         P607160505        000000000000000000000000035100020                                                             
U0003512010565020160000002016VERSAMENTO CONTRIBUTI O RITENUTE  MESE DI: MAGGIO 16                                                                                                                                                                                                      0000000000002774000000399VERS.CONTRIB. MESE: MAGGIO 16 A CARICO DELL`ENTE                                                                                                                                                                                                          01111         P201160505        000000000000000000000000035100020                                                             
U0003512010565020160000002016VERSAMENTO CONTRIBUTI O RITENUTE  MESE DI: MAGGIO 16                                                                                                                                                                                                      0000000000001674000000399VERS.CONTRIB. MESE: MAGGIO 16 A CARICO DELL`ENTE                                                                                                                                                                                                          01111         P201160505        000000000000000000000000035100020                                                             
U0003512010565020160000002016VERSAMENTO CONTRIBUTI O RITENUTE  MESE DI: MAGGIO 16                                                                                                                                                                                                      0000000000001455000000399VERS.CONTRIB. MESE: MAGGIO 16 A CARICO DELL`ENTE                                                                                                                                                                                                          01111         P201160505        000000000000000000000000035100020                                                             
U0003512010565020160000002016VERSAMENTO CONTRIBUTI O RITENUTE  MESE DI: MAGGIO 16                                                                                                                                                                                                      0000000000000632000000399VERS.CONTRIB. MESE: MAGGIO 16 A CARICO DELL`ENTE                                                                                                                                                                                                          01111         P201160505        000000000000000000000000035100020                                                             
U0003512010565020160000002016VERSAMENTO CONTRIBUTI O RITENUTE  MESE DI: MAGGIO 16                                                                                                                                                                                                      0000000000000604000000399VERS.CONTRIB. MESE: MAGGIO 16 A CARICO DELL`ENTE                                                                                                                                                                                                          01111         P201160505        000000000000000000000000035100020                                                             
U0003512010565020160000002016VERSAMENTO CONTRIBUTI O RITENUTE  MESE DI: MAGGIO 16                                                                                                                                                                                                      0000000000000439000000399VERS.CONTRIB. MESE: MAGGIO 16 A CARICO DELL`ENTE                                                                                                                                                                                                          01111         P201160505        000000000000000000000000035100020                                                             
U0003512010565020160000002016VERSAMENTO CONTRIBUTI O RITENUTE  MESE DI: MAGGIO 16                                                                                                                                                                                                      0000000000000405000000399VERS.CONTRIB. MESE: MAGGIO 16 A CARICO DELL`ENTE                                                                                                                                                                                                          01111         P201160505        000000000000000000000000035100020                                                             
U0003512010565020160000002016VERSAMENTO CONTRIBUTI O RITENUTE  MESE DI: MAGGIO 16                                                                                                                                                                                                      0000000000000172000000107VERS.CONTRIB. MESE: MAGGIO 16 A CARICO DELL`ENTE                                                                                                                                                                                                          01113         P607160505        000000000000000000000000035100020                                                             
U0003513010566020160000000000VERSAMENTO IMPOSTE PER I.R.A.P.  MESE DI: MAGGIO 16                                                                                                                                                                                                       0000000000001260000001326VERS. IMPOSTE MESE: MAGGIO 16 PER I.R.A.P.                                                                                                                                                                                                                01701                           000000000000000000000000035100030                                                             
U0003513010566020160000002016VERSAMENTO IMPOSTE PER I.R.A.P.  MESE DI: MAGGIO 16                                                                                                                                                                                                       0000000000016728000001326VERS. IMPOSTE MESE: MAGGIO 16 PER I.R.A.P.                                                                                                                                                                                                                01701                           000000000000000000000000035100030                                                             
U0003513010566020160000002016VERSAMENTO IMPOSTE PER I.R.A.P.  MESE DI: MAGGIO 16                                                                                                                                                                                                       0000000000013974000001326VERS. IMPOSTE MESE: MAGGIO 16 PER I.R.A.P.                                                                                                                                                                                                                01701                           000000000000000000000000035100030                                                             
U0003513010566020160000002016VERSAMENTO IMPOSTE PER I.R.A.P.  MESE DI: MAGGIO 16                                                                                                                                                                                                       0000000000002999000001326VERS. IMPOSTE MESE: MAGGIO 16 PER I.R.A.P.                                                                                                                                                                                                                01701                           000000000000000000000000035100030                                                             
U0003513010566020160000002016VERSAMENTO IMPOSTE PER I.R.A.P.  MESE DI: MAGGIO 16                                                                                                                                                                                                       0000000000000794000001326VERS. IMPOSTE MESE: MAGGIO 16 PER I.R.A.P.                                                                                                                                                                                                                01701                           000000000000000000000000035100030                                                             
U0003513010566020160000002016VERSAMENTO IMPOSTE PER I.R.A.P.  MESE DI: MAGGIO 16                                                                                                                                                                                                       0000000000000597000001326VERS. IMPOSTE MESE: MAGGIO 16 PER I.R.A.P.                                                                                                                                                                                                                01701                           000000000000000000000000035100030                                                             
U0003513010566020160000002016VERSAMENTO IMPOSTE PER I.R.A.P.  MESE DI: MAGGIO 16                                                                                                                                                                                                       0000000000000519000001326VERS. IMPOSTE MESE: MAGGIO 16 PER I.R.A.P.                                                                                                                                                                                                                01701                           000000000000000000000000035100030                                                             
U0003513010566020160000002016VERSAMENTO IMPOSTE PER I.R.A.P.  MESE DI: MAGGIO 16                                                                                                                                                                                                       0000000000000226000001326VERS. IMPOSTE MESE: MAGGIO 16 PER I.R.A.P.                                                                                                                                                                                                                01701                           000000000000000000000000035100030                                                             
U0003513010566020160000002016VERSAMENTO IMPOSTE PER I.R.A.P.  MESE DI: MAGGIO 16                                                                                                                                                                                                       0000000000000216000001326VERS. IMPOSTE MESE: MAGGIO 16 PER I.R.A.P.                                                                                                                                                                                                                01701                           000000000000000000000000035100030                                                             
U0003513010566020160000002016VERSAMENTO IMPOSTE PER I.R.A.P.  MESE DI: MAGGIO 16                                                                                                                                                                                                       0000000000000157000001326VERS. IMPOSTE MESE: MAGGIO 16 PER I.R.A.P.                                                                                                                                                                                                                01701                           000000000000000000000000035100030                                                             
U0003513010566020160000002016VERSAMENTO IMPOSTE PER I.R.A.P.  MESE DI: MAGGIO 16                                                                                                                                                                                                       0000000000000144000001326VERS. IMPOSTE MESE: MAGGIO 16 PER I.R.A.P.                                                                                                                                                                                                                01701                           000000000000000000000000035100030                                                             
U0007130010578020160000002016STIPENDI RELATIVI AL MESE DI: MAGGIO 16                                                                                                                                                                                                                   0000000000015080000001069STIPENDI MESE DI: MAGGIO 16                                                                                                                                                                                                                               01330                           000000000000000000000000071300000                                                             
U0008510010504120160000000000VERSAMENTO IMPOSTE PER I.R.A.P.  MESE DI: MAGGIO 16                                                                                                                                                                                                       0000000000139392000001326VERS. IMPOSTE MESE: MAGGIO 16 PER I.R.A.P.                                                                                                                                                                                                                01701                           000000000000000000000000085100000                                                             
U0009000110500920160000000000STIPENDI RELATIVI AL MESE DI: MAGGIO 16                                                                                                                                                                                                                   0000000000971737000001069STIPENDI MESE DI: MAGGIO 16                                                                                                                                                                                                                               01101                           000000000206531000000000090000001                                                             
U0009000110500920160000000000STIPENDI RELATIVI AL MESE DI: MAGGIO 16                                                                                                                                                                                                                   0000000000022867000001069STIPENDI MESE DI: MAGGIO 16                                                                                                                                                                                                                               01101                           000000000004810000000000090000001                                                             
U0009000110500920160000000000STIPENDI RELATIVI AL MESE DI: MAGGIO 16                                                                                                                                                                                                                   0000000000016795000001069STIPENDI MESE DI: MAGGIO 16                                                                                                                                                                                                                               01101                           000000000003708000000000090000001                                                             
U0009000110500920160000100000STIPENDI RELATIVI AL MESE DI: MAGGIO 16                                                                                                                                                                                                                   0000000002096315000000000STIPENDI MESE DI: MAGGIO 16                                                                                                                                                                                                                               00000                           000000000588347000000000090000001                                                             
U0009000110500920160000100000STIPENDI RELATIVI AL MESE DI: MAGGIO 16                                                                                                                                                                                                                   0000000000185132000000000STIPENDI MESE DI: MAGGIO 16                                                                                                                                                                                                                               00000                           000000000051959000000000090000001                                                             
U0009000110500920160000100000STIPENDI RELATIVI AL MESE DI: MAGGIO 16                                                                                                                                                                                                                   0000000000167506000001069STIPENDI MESE DI: MAGGIO 16                                                                                                                                                                                                                               01104                           000000000047012000000000090000001                                                             
U0009000110500920160000200000STIPENDI RELATIVI AL MESE DI: MAGGIO 16                                                                                                                                                                                                                   0000000000071221000001069STIPENDI MESE DI: MAGGIO 16                                                                                                                                                                                                                               01104                           000000000019988000000000090000001                                                             
U0009002010512320160000000000VERSAMENTO CONTRIBUTI O RITENUTE  MESE DI: MAGGIO 16                                                                                                                                                                                                      0000000000600961000000399VERS.CONTRIB. MESE: MAGGIO 16 A CARICO DELL`ENTE                                                                                                                                                                                                          01111         P201160505        000000000000000000000000090000020                                                             
U0009002010512320160000000000VERSAMENTO CONTRIBUTI O RITENUTE  MESE DI: MAGGIO 16                                                                                                                                                                                                      0000000000243788000000399VERS.CONTRIB. MESE: MAGGIO 16 A CARICO DELL`ENTE                                                                                                                                                                                                          01111         P201160505        000000000000000000000000090000020                                                             
U0009002010512320160000000000VERSAMENTO CONTRIBUTI O RITENUTE  MESE DI: MAGGIO 16                                                                                                                                                                                                      0000000000031515000000107VERS.CONTRIB. MESE: MAGGIO 16 A CARICO DELL`ENTE                                                                                                                                                                                                          01113         P608160505        000000000000000000000000090000020                                                             
U0009002010512320160000000000VERSAMENTO CONTRIBUTI O RITENUTE  MESE DI: MAGGIO 16                                                                                                                                                                                                      0000000000012084000000107VERS.CONTRIB. MESE: MAGGIO 16 A CARICO DELL`ENTE                                                                                                                                                                                                          01113         P608160505        000000000000000000000000090000020                                                             
U0009002010512320160000000000VERSAMENTO CONTRIBUTI O RITENUTE  MESE DI: MAGGIO 16                                                                                                                                                                                                      0000000000010173000000107VERS.CONTRIB. MESE: MAGGIO 16 A CARICO DELL`ENTE                                                                                                                                                                                                          01113         P607160505        000000000000000000000000090000020                                                             
U0009002510540120160000000000STIPENDI RELATIVI AL MESE DI: MAGGIO 16                                                                                                                                                                                                                   0000000000002733000001069STIPENDI MESE DI: MAGGIO 16                                                                                                                                                                                                                               01101                           000000000000000000000000090000025                                                             
U0009600010504220160000000000VERSAMENTO IMPOSTE PER I.R.A.P.  MESE DI: MAGGIO 16                                                                                                                                                                                                       0000000000214629000001326VERS. IMPOSTE MESE: MAGGIO 16 PER I.R.A.P.                                                                                                                                                                                                                01701                           000000000000000000000000096000000                                                             
U0009600010504220160000000000VERSAMENTO IMPOSTE PER I.R.A.P.  MESE DI: MAGGIO 16                                                                                                                                                                                                       0000000000071888000001326VERS. IMPOSTE MESE: MAGGIO 16 PER I.R.A.P.                                                                                                                                                                                                                01701                           000000000000000000000000096000000                                                             
U0010000110509020160000000000STIPENDI RELATIVI AL MESE DI: MAGGIO 16                                                                                                                                                                                                                   0000000000308489000001069STIPENDI MESE DI: MAGGIO 16                                                                                                                                                                                                                               01101                           000000000071400000000000100000001                                                             
U0010000110509020160000000000STIPENDI RELATIVI AL MESE DI: MAGGIO 16                                                                                                                                                                                                                   0000000000018411000001069STIPENDI MESE DI: MAGGIO 16                                                                                                                                                                                                                               01101                           000000000005428000000000100000001                                                             
U0010000110509020160000000000STIPENDI RELATIVI AL MESE DI: MAGGIO 16                                                                                                                                                                                                                   0000000000007889000001069STIPENDI MESE DI: MAGGIO 16                                                                                                                                                                                                                               01101                           000000000001820000000000100000001                                                             
U0010002010511520160000000000VERSAMENTO CONTRIBUTI O RITENUTE  MESE DI: MAGGIO 16                                                                                                                                                                                                      0000000000080457000000399VERS.CONTRIB. MESE: MAGGIO 16 A CARICO DELL`ENTE                                                                                                                                                                                                          01111         P201160505        000000000000000000000000100000020                                                             
U0010002010511520160000000000VERSAMENTO CONTRIBUTI O RITENUTE  MESE DI: MAGGIO 16                                                                                                                                                                                                      0000000000007971000000107VERS.CONTRIB. MESE: MAGGIO 16 A CARICO DELL`ENTE                                                                                                                                                                                                          01113         P608160505        000000000000000000000000100000020                                                             
U0010002010511520160000000000VERSAMENTO CONTRIBUTI O RITENUTE  MESE DI: MAGGIO 16                                                                                                                                                                                                      0000000000004781000000107VERS.CONTRIB. MESE: MAGGIO 16 A CARICO DELL`ENTE                                                                                                                                                                                                          01113         P607160505        000000000000000000000000100000020                                                             
U0011650010504320160000000000VERSAMENTO IMPOSTE PER I.R.A.P.  MESE DI: MAGGIO 16                                                                                                                                                                                                       0000000000028735000001326VERS. IMPOSTE MESE: MAGGIO 16 PER I.R.A.P.                                                                                                                                                                                                                01701                           000000000000000000000000116500000                                                             
U0012000110509120160000000000STIPENDI RELATIVI AL MESE DI: MAGGIO 16                                                                                                                                                                                                                   0000000000755965000001069STIPENDI MESE DI: MAGGIO 16                                                                                                                                                                                                                               01101                           000000000133798000000000120000001                                                             
U0012000110509120160000000000STIPENDI RELATIVI AL MESE DI: MAGGIO 16                                                                                                                                                                                                                   0000000000042169000001069STIPENDI MESE DI: MAGGIO 16                                                                                                                                                                                                                               01101                           000000000006980000000000120000001                                                             
U0012000110509120160000000000STIPENDI RELATIVI AL MESE DI: MAGGIO 16                                                                                                                                                                                                                   0000000000016955000001069STIPENDI MESE DI: MAGGIO 16                                                                                                                                                                                                                               01101                           000000000003012000000000120000001                                                             
U0012002010511620160000000000VERSAMENTO CONTRIBUTI O RITENUTE  MESE DI: MAGGIO 16                                                                                                                                                                                                      0000000000195538000000399VERS.CONTRIB. MESE: MAGGIO 16 A CARICO DELL`ENTE                                                                                                                                                                                                          01111         P201160505        000000000000000000000000120000020                                                             
U0012002010511620160000000000VERSAMENTO CONTRIBUTI O RITENUTE  MESE DI: MAGGIO 16                                                                                                                                                                                                      0000000000015857000000107VERS.CONTRIB. MESE: MAGGIO 16 A CARICO DELL`ENTE                                                                                                                                                                                                          01113         P608160505        000000000000000000000000120000020                                                             
U0012002010511620160000000000VERSAMENTO CONTRIBUTI O RITENUTE  MESE DI: MAGGIO 16                                                                                                                                                                                                      0000000000013773000000107VERS.CONTRIB. MESE: MAGGIO 16 A CARICO DELL`ENTE                                                                                                                                                                                                          01113         P607160505        000000000000000000000000120000020                                                             
U0012002510540220160000000000STIPENDI RELATIVI AL MESE DI: MAGGIO 16                                                                                                                                                                                                                   0000000000071075000001069STIPENDI MESE DI: MAGGIO 16                                                                                                                                                                                                                               01101                           000000000000000000000000120000025                                                             
U0012300010504420160000000000VERSAMENTO IMPOSTE PER I.R.A.P.  MESE DI: MAGGIO 16                                                                                                                                                                                                       0000000000069835000001326VERS. IMPOSTE MESE: MAGGIO 16 PER I.R.A.P.                                                                                                                                                                                                                01701                           000000000000000000000000123000000                                                             
U0012500110509220160000000000STIPENDI RELATIVI AL MESE DI: MAGGIO 16                                                                                                                                                                                                                   0000000000873397000001069STIPENDI MESE DI: MAGGIO 16                                                                                                                                                                                                                               01101                           000000000200177000000000125000001                                                             
U0012500110509220160000000000STIPENDI RELATIVI AL MESE DI: MAGGIO 16                                                                                                                                                                                                                   0000000000069192000001069STIPENDI MESE DI: MAGGIO 16                                                                                                                                                                                                                               01101                           000000000017167000000000125000001                                                             
U0012500110509220160000000000STIPENDI RELATIVI AL MESE DI: MAGGIO 16                                                                                                                                                                                                                   0000000000021828000001069STIPENDI MESE DI: MAGGIO 16                                                                                                                                                                                                                               01101                           000000000005017000000000125000001                                                             
U0012500110509220160000100000STIPENDI RELATIVI AL MESE DI: MAGGIO 16                                                                                                                                                                                                                   0000000000326347000001069STIPENDI MESE DI: MAGGIO 16                                                                                                                                                                                                                               01101                           000000000128669000000000125000001                                                             
U0012500110509220160000200000STIPENDI RELATIVI AL MESE DI: MAGGIO 16                                                                                                                                                                                                                   0000000000126166000001069STIPENDI MESE DI: MAGGIO 16                                                                                                                                                                                                                               01101                           000000000049744000000000125000001                                                             
U0012502010512420160000000000VERSAMENTO CONTRIBUTI O RITENUTE  MESE DI: MAGGIO 16                                                                                                                                                                                                      0000000000231349000000399VERS.CONTRIB. MESE: MAGGIO 16 A CARICO DELL`ENTE                                                                                                                                                                                                          01111         P201160505        000000000000000000000000125000020                                                             
U0012502010512420160000000000VERSAMENTO CONTRIBUTI O RITENUTE  MESE DI: MAGGIO 16                                                                                                                                                                                                      0000000000109896000000399VERS.CONTRIB. MESE: MAGGIO 16 A CARICO DELL`ENTE                                                                                                                                                                                                          01111         P201160505        000000000000000000000000125000020                                                             
U0012502010512420160000000000VERSAMENTO CONTRIBUTI O RITENUTE  MESE DI: MAGGIO 16                                                                                                                                                                                                      0000000000022533000000107VERS.CONTRIB. MESE: MAGGIO 16 A CARICO DELL`ENTE                                                                                                                                                                                                          01113         P608160505        000000000000000000000000125000020                                                             
U0012502010512420160000000000VERSAMENTO CONTRIBUTI O RITENUTE  MESE DI: MAGGIO 16                                                                                                                                                                                                      0000000000018625000000107VERS.CONTRIB. MESE: MAGGIO 16 A CARICO DELL`ENTE                                                                                                                                                                                                          01113         P608160505        000000000000000000000000125000020                                                             
U0012502010512420160000000000VERSAMENTO CONTRIBUTI O RITENUTE  MESE DI: MAGGIO 16                                                                                                                                                                                                      0000000000016308000000107VERS.CONTRIB. MESE: MAGGIO 16 A CARICO DELL`ENTE                                                                                                                                                                                                          01113         P607160505        000000000000000000000000125000020                                                             
U0015050010504520160000000000VERSAMENTO IMPOSTE PER I.R.A.P.  MESE DI: MAGGIO 16                                                                                                                                                                                                       0000000000082625000001326VERS. IMPOSTE MESE: MAGGIO 16 PER I.R.A.P.                                                                                                                                                                                                                01701                           000000000000000000000000150500000                                                             
U0015050010504520160000000000VERSAMENTO IMPOSTE PER I.R.A.P.  MESE DI: MAGGIO 16                                                                                                                                                                                                       0000000000039249000001326VERS. IMPOSTE MESE: MAGGIO 16 PER I.R.A.P.                                                                                                                                                                                                                01701                           000000000000000000000000150500000                                                             
U0015500110509320160000000000STIPENDI RELATIVI AL MESE DI: MAGGIO 16                                                                                                                                                                                                                   0000000000950916000001069STIPENDI MESE DI: MAGGIO 16                                                                                                                                                                                                                               01101                           000000000260822000000000155000001                                                             
U0015500110509320160000000000STIPENDI RELATIVI AL MESE DI: MAGGIO 16                                                                                                                                                                                                                   0000000000037414000001069STIPENDI MESE DI: MAGGIO 16                                                                                                                                                                                                                               01101                           000000000010593000000000155000001                                                             
U0015500110509320160000000000STIPENDI RELATIVI AL MESE DI: MAGGIO 16                                                                                                                                                                                                                   0000000000022836000001069STIPENDI MESE DI: MAGGIO 16                                                                                                                                                                                                                               01101                           000000000006264000000000155000001                                                             
U0015502010511720160000000000VERSAMENTO CONTRIBUTI O RITENUTE  MESE DI: MAGGIO 16                                                                                                                                                                                                      0000000000242917000000399VERS.CONTRIB. MESE: MAGGIO 16 A CARICO DELL`ENTE                                                                                                                                                                                                          01111         P201160505        000000000000000000000000155000020                                                             
U0015502010511720160000000000VERSAMENTO CONTRIBUTI O RITENUTE  MESE DI: MAGGIO 16                                                                                                                                                                                                      0000000000023169000000107VERS.CONTRIB. MESE: MAGGIO 16 A CARICO DELL`ENTE                                                                                                                                                                                                          01113         P608160505        000000000000000000000000155000020                                                             
U0015502010511720160000000000VERSAMENTO CONTRIBUTI O RITENUTE  MESE DI: MAGGIO 16                                                                                                                                                                                                      0000000000014996000000107VERS.CONTRIB. MESE: MAGGIO 16 A CARICO DELL`ENTE                                                                                                                                                                                                          01113         P607160505        000000000000000000000000155000020                                                             
U0015502510540320160000000000STIPENDI RELATIVI AL MESE DI: MAGGIO 16                                                                                                                                                                                                                   0000000000024259000001069STIPENDI MESE DI: MAGGIO 16                                                                                                                                                                                                                               01101                           000000000000000000000000155000025                                                             
U0016520010504620160000000000VERSAMENTO IMPOSTE PER I.R.A.P.  MESE DI: MAGGIO 16                                                                                                                                                                                                       0000000000086756000001326VERS. IMPOSTE MESE: MAGGIO 16 PER I.R.A.P.                                                                                                                                                                                                                01701                           000000000000000000000000165200000                                                             
U0016591310103620160000102016STIPENDI RELATIVI AL MESE DI: MAGGIO 16                                                                                                                                                                                                                   0000000000296168000000001STIPENDI MESE DI: MAGGIO 16                                                                                                                                                                                                                               01107                           000000000084122000000000165900013                                                             
U0016591310103620160000102016STIPENDI RELATIVI AL MESE DI: MAGGIO 16                                                                                                                                                                                                                   0000000000172069000000001STIPENDI MESE DI: MAGGIO 16                                                                                                                                                                                                                               01107                           000000000058895000000000165900013                                                             
U0016591310103620160000102016STIPENDI RELATIVI AL MESE DI: MAGGIO 16                                                                                                                                                                                                                   0000000000142445000000001STIPENDI MESE DI: MAGGIO 16                                                                                                                                                                                                                               01107                           000000000030196000000000165900013                                                             
U0016591310103620160000102016STIPENDI RELATIVI AL MESE DI: MAGGIO 16                                                                                                                                                                                                                   0000000000101594000000001STIPENDI MESE DI: MAGGIO 16                                                                                                                                                                                                                               01107                           000000000033366000000000165900013                                                             
U0016591310103620160000102016STIPENDI RELATIVI AL MESE DI: MAGGIO 16                                                                                                                                                                                                                   0000000000083901000000001STIPENDI MESE DI: MAGGIO 16                                                                                                                                                                                                                               01107                           000000000017598000000000165900013                                                             
U0016591310103620160000102016STIPENDI RELATIVI AL MESE DI: MAGGIO 16                                                                                                                                                                                                                   0000000000041915000000001STIPENDI MESE DI: MAGGIO 16                                                                                                                                                                                                                               01107                           000000000010740000000000165900013                                                             
U0016591310103620160000102016STIPENDI RELATIVI AL MESE DI: MAGGIO 16                                                                                                                                                                                                                   0000000000033155000000001STIPENDI MESE DI: MAGGIO 16                                                                                                                                                                                                                               01107                           000000000007496000000000165900013                                                             
U0016591310103620160000102016STIPENDI RELATIVI AL MESE DI: MAGGIO 16                                                                                                                                                                                                                   0000000000028345000000001STIPENDI MESE DI: MAGGIO 16                                                                                                                                                                                                                               01107                           000000000007348000000000165900013                                                             
U0016591310103620160000102016STIPENDI RELATIVI AL MESE DI: MAGGIO 16                                                                                                                                                                                                                   0000000000023444000000001STIPENDI MESE DI: MAGGIO 16                                                                                                                                                                                                                               01107                           000000000006641000000000165900013                                                             
U0016591310103620160000102016STIPENDI RELATIVI AL MESE DI: MAGGIO 16                                                                                                                                                                                                                   0000000000016409000000001STIPENDI MESE DI: MAGGIO 16                                                                                                                                                                                                                               01107                           000000000003436000000000165900013                                                             
U0016592010103620160000202016VERSAMENTO CONTRIBUTI O RITENUTE  MESE DI: MAGGIO 16                                                                                                                                                                                                      0000000000070488000000399VERS.CONTRIB. MESE: MAGGIO 16 A CARICO DELL`ENTE                                                                                                                                                                                                          01111         P201160505        000000000000000000000000165900020                                                             
U0016592010103620160000202016VERSAMENTO CONTRIBUTI O RITENUTE  MESE DI: MAGGIO 16                                                                                                                                                                                                      0000000000040953000000399VERS.CONTRIB. MESE: MAGGIO 16 A CARICO DELL`ENTE                                                                                                                                                                                                          01111         P201160505        000000000000000000000000165900020                                                             
U0016592010103620160000202016VERSAMENTO CONTRIBUTI O RITENUTE  MESE DI: MAGGIO 16                                                                                                                                                                                                      0000000000033902000000399VERS.CONTRIB. MESE: MAGGIO 16 A CARICO DELL`ENTE                                                                                                                                                                                                          01111         P201160505        000000000000000000000000165900020                                                             
